:020000040000fa
:080000000210040000000000e2
:020000040000fa
:10200000040000006fbd2000007f24000001880054
:10201000000000000c00070000602200010020000a
:1020200011000700000020000000e0000200320064
:1020300000000200000000009a22020000000000e0
:102040000040da000000fe004440a900a025200066
:102050000000e0000300320000002000a001880022
:102060004440a8000000060091018800800078002c
:102070000000eb0015003700e280400032a0b40001
:102080009101ba00e280400032a0b4009102ba008f
:10209000e280400032a0b4000002eb00472bde00db
:1020a000f507b200602ce10004003a000059eb0093
:1020b0008301e900fdff3e00040037006128e100d4
:1020c000010032000082eb00040007001101ba0099
:1020d0000200e000e8ff3a00000006003159ba00b3
:1020e0008301e9000c0032002159ba008301e900a4
:1020f000080032000400e00003003a00e2804000e3
:1021000032a0b400f5ff370011d9ba008301e9000d
:10211000faff3a008100e800e180400032a0b400fc
:1021200000000600800178000001780001003700ff
:102130000201e8001204e000fdff3a00020037004f
:102140000201e8008100e8001140780000497800b1
:102150000004e000faff3a000300780000000600e7
:1021600080007800010037000000e8001004e00063
:10217000fdff3a0001005000000006000002780058
:102180000000eb000b0037009441780091cf510024
:10219000030032000080eb00090039001000050048
:1021a0000000e8000304e000040032000402e8003c
:1021b0008100e800820f5000f3ff3a000000eb00be
:1021c0000000060021108800301088000000060082
:1021d00006c2bf000008a300fdff3a0006c2bf0010
:1021e0000028a300faff3a0006c2bf000038a3008f
:1021f000f7ff3a0006c2bf000018a300f4ff3a0040
:1022000006c2bf000048a300f1ff3a0009c2bf00a8
:102210000068a300eeff3a00000006000602a800d6
:10222000000006000080fb00101088000080eb001a
:102230000842e2000800350009c2bf000068a300a0
:10224000fdff3a00e2ff0700e0ff2f000942e20035
:10225000010035000000eb00000006000642a80067
:10226000000006000622a800000006000662a80082
:1022700006c2bf000038a300fdff3a0008c2a90053
:10228000001080000080fb000000060006a2a800ed
:082290000682a8000000060010
:020000040000fa
:0200000401f009
:04000000ffff0000fe
:020000040000fa
:0200000401f009
:04000400ffff0000fa
:020000040000fa
:0200000401f009
:04000800ffff0000f6
:020000040000fa
:0200000401f009
:04000c0079ff000078
:020000040000fa
:0200000401f009
:040010009bff000052
:020000040000fa
:0200000401f009
:040014007fff00006a
:020000040000fa
:0200000401f009
:04001800eeff0000f7
:020000040000fa
:0200000401f009
:04001c00deff000003
:020000040000fa
:10000800a0270000a0270000a0270000a0270000cc
:10001800a0270000a0270000a0270000a0270000bc
:10002800a0270000a0270000a02700004c22000005
:10003800a0270000a0270000a0270000a02700009c
:10004800a0270000a0270000a0270000a02700008c
:10005800a0270000a0270000a0270000a02700007c
:10006800a0270000a0270000a0270000a02700006c
:10007800a0270000a0270000a0270000a02700005c
:10008800a0270000a0270000a0270000a02700004c
:10009800a0270000a0270000a0270000a02700003c
:1000a800a0270000a0270000a0270000a02700002c
:1000b800a0270000a0270000a0270000a02700001c
:1000c800a0270000a0270000a0270000a02700000c
:1000d800a0270000a0270000a0270000a0270000fc
:1000e800a0270000a0270000a0270000a0270000ec
:1000f800a0270000a0270000a0270000a0270000dc
:10010800a0270000a0270000a0270000a0270000cb
:10011800a0270000a0270000a0270000a0270000bb
:10012800a0270000a0270000a0270000a0270000ab
:10013800a0270000a0270000a0270000a02700009b
:10014800a0270000a0270000a0270000a02700008b
:10015800a0270000a0270000a0270000a02700007b
:10016800a0270000a0270000a0270000a02700006b
:10017800a0270000a0270000a0270000a02700005b
:10018800a0270000a0270000a0270000a02700004b
:10019800a0270000a0270000a0270000a02700003b
:1001a800a0270000a0270000a0270000a02700002b
:1001b800a0270000a0270000a0270000a02700001b
:1001c800a0270000a0270000a0270000a02700000b
:1001d800a0270000a0270000a0270000a0270000fb
:1001e800a0270000a0270000a0270000a0270000eb
:0801f800a0270000a027000071
:020000040000fa
:10020800a0270000a0270000a0270000a0270000ca
:10021800a0270000a0270000a0270000a0270000ba
:10022800a0270000a0270000a02700004c22000003
:10023800a0270000a0270000a0270000a02700009a
:10024800a0270000a0270000a0270000a02700008a
:10025800a0270000a0270000a0270000a02700007a
:10026800a0270000a0270000a0270000a02700006a
:10027800a0270000a0270000a0270000a02700005a
:10028800a0270000a0270000a0270000a02700004a
:10029800a0270000a0270000a0270000a02700003a
:1002a800a0270000a0270000a0270000a02700002a
:1002b800a0270000a0270000a0270000a02700001a
:1002c800a0270000a0270000a0270000a02700000a
:1002d800a0270000a0270000a0270000a0270000fa
:1002e800a0270000a0270000a0270000a0270000ea
:1002f800a0270000a0270000a0270000a0270000da
:10030800a0270000a0270000a0270000a0270000c9
:10031800a0270000a0270000a0270000a0270000b9
:10032800a0270000a0270000a0270000a0270000a9
:10033800a0270000a0270000a0270000a027000099
:10034800a0270000a0270000a0270000a027000089
:10035800a0270000a0270000a0270000a027000079
:10036800a0270000a0270000a0270000a027000069
:10037800a0270000a0270000a0270000a027000059
:10038800a0270000a0270000a0270000a027000049
:10039800a0270000a0270000a0270000a027000039
:1003a800a0270000a0270000a0270000a027000029
:1003b800a0270000a0270000a0270000a027000019
:1003c800a0270000a0270000a0270000a027000009
:1003d800a0270000a0270000a0270000a0270000f9
:1003e800a0270000a0270000a0270000a0270000e9
:0803f800a0270000a02700006f
:020000040000fa
:1022980047450000542000002f000000504f000068
:1022a80053540000202f00000072000061640000f9
:1022b800696f00003d30000000720000616400009a
:1022c800696f00003d3100000048000054540000d0
:1022d800502f0000312e0000302000003230000066
:1022e800302000004f4b00000d0a0000436f000033
:1022f8006e740000656e0000742d000054790000b3
:10230800706500003a2000007465000078740000d1
:102318002f680000746d00006c0d00000a0d0000ad
:102328000a3c0000626f000064790000207300001e
:10233800747900006c6500003d22000062610000b5
:10234800636b0000677200006f7500006e64000028
:102358002d6300006f6c00006f7200003a460000a9
:102368004646000046460000463b0000223e00006c
:102378000d0a0000003c0000687400006d6c00004d
:102388003e3c0000626f0000647900003e0d0000d2
:102398000a3c000073700000616e000020730000aa
:1023a800747900006c6500003d220000636f000036
:1023b8006c6f0000723a00002345000035320000bf
:1023c80030380000412200003e0d00000a3c0000a9
:1023d800666f00006e7400002066000061630000f4
:1023e800653d00002256000065720000646100002f
:1023f8006e61000022200000636f00006c6f000017
:10240800723d0000464600003030000036360000bd
:102418003e0d00000a3c0000696d000067200000c6
:10242800626f000072640000657200003d220000c7
:102438003022000020730000726300003d2200007b
:1024480068740000747000003a2f00002f770000b5
:10245800777700002e640000656c00006963000057
:10246800696f000075730000646100006e6300000e
:10247800652e00006e6c00002f5000006c6100009b
:10248800617400006a650000732f00007461000029
:10249800737300006c6f0000676f00002e6a000005
:1024a800706700002277000069640000746800000b
:1024b8003d220000313000003030000022200000b2
:1024c8006865000069670000687400003d2200002c
:1024d80031320000302200002f3e0000200d0000a5
:1024e8000a3c0000683200003e54000041530000de
:1024f80053200000536d000061720000742000003a
:10250800686f00006d6500002061000070700000b9
:102518006c69000063610000746900006f6e000060
:102528003c2f0000683200003e0d00000a3c00000d
:10253800683400003e750000426f000061720000c0
:1025480064200000776900007468000020740000af
:1025580068650000205700006562000020620000e6
:102568006f610000726400003c2f000068340000b6
:102578003e0d00000a3c0000666f0000726d00000e
:10258800206d000065740000686f0000643d000065
:10259800225000004f530000542200003e0d00005e
:1025a8000a00000063680000656300006b650000b6
:1025b800640000003c7000003e3c0000696e0000b2
:1025c80070750000742000007479000070650000c8
:1025d8003d22000072610000646900006f22000063
:1025e800206e0000616d0000653d00002272000051
:1025f80061640000696f000022200000766100001d
:102608006c750000653d00002230000022200000ab
:10261800003e000043680000617300006520000070
:102628006566000066650000637400000d0a00001e
:10263800003c0000627200003e3c0000696e000031
:102648007075000074200000747900007065000047
:102658003d22000072610000646900006f220000e2
:10266800206e0000616d0000653d000022720000d0
:1026780061640000696f000022200000766100009c
:102688006c750000653d000022310000222000002a
:10269800003e000052610000696e0000626f000099
:1026a800772000006566000066650000637400001e
:1026b8000d0a0000003c00002f7300007472000037
:1026c8006f6e0000673e00003c7000003e0d000089
:1026d8000a0000003c6900006e700000757400007c
:1026e8002074000079700000653d0000227300002e
:1026f800756200006d690000742200003e0d000044
:102708000a0000003c2f0000666f0000726d000098
:102718003e3c00002f730000706100006e3e000018
:102728003c2f0000626f0000647900003e3c00000e
:102738002f680000746d00006c3e00000d0a000058
:04274800000000008d
:020000040000fa
:10274c000000fa0050012000403a8800600220008e
:10275c00303a880044c7bf00f043b20044e7b700ea
:10276c00417420009140780000ceb30000c060009e
:10277c0044e7b7000080fa00000006000000fa00f1
:10278c00c042a900c062a900c082a9000080fa0062
:10279c00000006000000fa0042c7a900002021003a
:1027ac0010368800300120002036880000402100bf
:1027bc0030368800005021005036880042c7a800ef
:1027cc000080fa00000006000200fa00c442a900d2
:1027dc00c462a9000000eb00000f78000300370072
:1027ec00c462a800c462a9001e0fe800f00020001b
:1027fc009e0f1000faff3400c482a800c482a90006
:10280c000080fa00000006000400fa000019200005
:10281c001007980000222800000f78009e009000fe
:10282c001e00780064fe070066fe07000041eb0006
:10283c0081c7b300a0c0b300820207000041eb00c7
:10284c008040eb00c0c0b3007e0207000041eb00eb
:10285c00f1c1b300d0c0b3007a0207000041eb0015
:10286c008040eb0020c0b300760207000041eb0073
:10287c008040eb0030c0b300720207000041eb0057
:10288c008040eb0020c1b3006e0207000041eb005a
:10289c008040eb0030c1b3006a0207000041eb003e
:1028ac008040eb000040eb00660207000041eb00ab
:1028bc00f1c1b30010c0b300620207000080fa003f
:1028cc00000006000000fa000d030700f0002000d5
:1028dc006a09070000c3b300e302070050002000a0
:1028ec006609070000c3b300df02070010002000d8
:1028fc006209070000c3b300db02070010002000d0
:10290c005e09070080c3b300d70207001000200047
:10291c005a09070080c1b300d3020700c0c0b3003e
:10292c00d102070010c0b300cf02070060c0b30093
:10293c00cd0207000080fa00000006000000fa003b
:10294c008461a900411820009140780080cfb30029
:10295c0000c060006040b30084e1b7000000eb00f1
:10296c00000c88008a61a900a11820009140780011
:10297c0080cfb30000c060006040b3008ae1b700b4
:10298c000000eb00300c88009061a90001192000b8
:10299c009140780080cfb30000c060006040b3006d
:1029ac0090e1b7000000eb00600c88001061a900fa
:1029bc000111200091407800f0ccb30000c0600001
:1029cc0001c2b3000140700010e1b7001021a90052
:1029dc0010c1a900001020006008880011e1a800b7
:1029ec001e61a900e111200091407800f0ccb300e9
:1029fc0000c060000044a0001ee1b7001e21a90029
:102a0c001ec1a900401f2000d00888001fe1a800ab
:102a1c000080fa00000006000000fa001061a90016
:102a2c000111200091407800f0ccb30000c0600090
:102a3c0010e1b7001021a90010c1a90094e0a80072
:102a4c0084e0a900803e20006008880081e0a80096
:102a5c00710a20009140780000c7b30000c07000dc
:102a6c00a7e0b70011e1a8000080fa000000060002
:102a7c000000fa000000eb00200888008460a90028
:102a8c00510a200091407800f0c8b30000c06000eb
:102a9c0001c6b30001407000a5e0b7009460a80027
:102aac000000eb00000888000080eb001008880094
:102abc0005e1a8000080fa00000006000000fa0002
:102acc0010802800001188000040200010118800a0
:102adc0040012000401188000080fa000000060030
:102aec000000fa00c962a9000001280080088800d3
:102afc00000128009008880060002000200c88004d
:102b0c0060002000500c880060002000800c8800c1
:102b1c00e0002000b00c88000080eb00100c880056
:102b2c000000eb00000c88000080eb00400c8800db
:102b3c000000eb00300c88000080eb00700c88006b
:102b4c000000eb00600c88000080eb00a00c8800fb
:102b5c000000eb00900c88000080fa0000000600da
:102b6c000000fa000080eb00601988002c03a9001b
:102b7c002c23a9002c43a9002c63a9002c83a900a9
:102b8c002143a90023c3bf007f40600023e3b700ab
:102b9c0025e3a90030c0b30024e3b7005132200074
:102bac009140780000ceb30000c06000f040b3004c
:102bbc0025e3b7003132200091407800c0cfb3003c
:102bcc0000c0600023e3b7002043a90020c3bf006e
:102bdc007f40600020e3b700113220009140780064
:102bec00c0cfb30000c060000004a00021e3b70018
:102bfc0021e3a8000080fa00000006000000fa00a3
:102c0c000080eb00601988002c03a9002c23a9007c
:102c1c002c43a9002c63a9002143a90023c3bf00a6
:102c2c007f40600023e3b70025e3a90030c0b30068
:102c3c0024e3b700513220009140780000ceb3005d
:102c4c0000c06000f040b30025e3b70028e3a90002
:102c5c00813220009140780000ceb30000c06000ab
:102c6c000014a00028e3b700313220009140780016
:102c7c00c0cfb30000c0600023e3b7002043a8001e
:102c8c00013220009140780000ceb30000c07000eb
:102c9c0020e3b7001132200091407800c0cfb30080
:102cac0000c060000004a00021e3b70021e3a800ed
:102cbc000080fa00000006000000fa004ba7a900f3
:102ccc004ae7a8004bc7bf007040b3004be7b70002
:102cdc00013f20009140780000c8b30000c06000a4
:102cec003040b300f0e3b7000000eb00a01f8800f9
:102cfc00f103a800f3e3a800f2e3a800f1e3a800b5
:102d0c000080fa00000006000000fa0021e3a90090
:102d1c00c0ff21006019880023c3bf007f40600002
:102d2c0023e3b700a0c0b30024e3b70025e3a90058
:102d3c003132200091407800c0cfb30000c0600059
:102d4c0023e3b70028e3a90001322000914078006a
:102d5c0000ceb30000c0700020e3b7005132200059
:102d6c009140780000ceb30000c06000a040b300da
:102d7c0025e3b7001132200091407800c0cfb3009a
:102d8c0000c060000004a00021e3b7002043a800ad
:102d9c002143a80021e3a8000080fa0000000600ef
:102dac000000fa00f1e3a9004ba7a9004ae7a8002c
:102dbc004bc7bf007040b3004be7b700013f20008a
:102dcc009140780000c8b30000c060003040b300f0
:102ddc00f0e3b7000000eb00a01f8800f103a8008f
:102dec00f3e3a800f2e3a800f1e3a8000080fa00e6
:102dfc00000006000200fa00000f780028e3a9008a
:102e0c001e0078007f4060007f416000813220000e
:102e1c009140780000ceb30000c06000024070000a
:102e2c0028e3b7002023a800a00020002a080700f0
:102e3c002023a90020c3bf00614060000004e00013
:102e4c00fcff3200001880000080fa000000060031
:102e5c000400fa00000f7800110798001e0078009b
:102e6c00c01f88001e009000b01f88000080fa0070
:102e7c00000006000800fa001007980021079800cf
:102e8c00320798000000eb00000f780011003700ab
:102e9c00be0090001e0078000088b9004781de005b
:102eac00ae0090001e0078000088b900c781de00db
:102ebc009e0090001e0078000088b9004780de005c
:102ecc00830078001e00070050002000eb0707006d
:102edc001e0fe800f00720009e0f1000ecff3400de
:102eec00f0072000000f780011003700be009000a2
:102efc001e0078000088b9004781de00ae0090000b
:102f0c001e0078000088b900c781de009e0090008a
:102f1c001e0078000088b9004780de00830078002e
:102f2c000700070050002000d40707001e0fe9001f
:102f3c001e00e000edff3c000080fa0000000600df
:102f4c000600fa00000f780011079800220798007d
:102f5c001e007800000c88001e009000300c8800c9
:102f6c002e009000600c88000080fa000000060023
:102f7c000400fa0010079800c462a900c482a900da
:102f8c000040eb00004f78000d003700c462a80031
:102f9c00c462a9001e009000610060000004e00003
:102fac0002003200c442a80001003700c442a9004c
:102fbc001e0090000000d100100798001e4fe80082
:102fcc0000c1b3009e4f1000f0ff3600c482a80071
:102fdc00c482a9000080fa00000006000c00fa0070
:102fec0020079800310798002e00900040079800a9
:102ffc004e009000e40f5000230032004e00900071
:10300c00e40f50000a003e004e009000e20f50000a
:10301c00170032004e009000e20f500017003e00e7
:10302c004e009000e10f50000e00320025003700da
:10303c004e009000e60f5000190032004e00900038
:10304c00e60f5000130039004e009000e70f5000bf
:10305c00160032004e009000e80f500016003200af
:10306c0018003700000028001007980017003700e0
:10307c0000002a00100798001400370000802a0076
:10308c00100798001100370000a02a0010079800c4
:10309c000e00370000a82a00100798000b0037001c
:1030ac0000aa2a00100798000800370080aa2a00fe
:1030bc001007980005003700a0aa2a0010079800f6
:1030cc00020037000000eb00100798003e00900053
:1030dc00500798005e009000e40f5000230032006f
:1030ec005e009000e40f50000a003e005e0090006d
:1030fc00e20f5000170032005e009000e20f50000b
:10310c0017003e005e009000e10f50000e003200f0
:10311c00250037005e009000e60f500019003200c9
:10312c005e009000e60f5000130039005e00900026
:10313c00e70f5000160032005e009000e80f5000c0
:10314c00160032001800370000002400000f780031
:10315c001700370000002500000f7800140037001e
:10316c0000402500000f78001100370000502500aa
:10317c00000f78000e00370000542500000f780077
:10318c000b00370000552500000f780008003700b1
:10319c0040552500000f78000500370050552500dc
:1031ac00000f7800020037000000eb00000f7800e1
:1031bc001e0090001e0070006dff07000080fa00da
:1031cc00000006000200fa00004f780023c2bf0086
:1031dc00624060000004e000fcff3a001e00fb00af
:1031ec00201188000080fa00000006000200fa009e
:1031fc00000f7800040037001e00780010407800a3
:10320c001e0fe800efff07001e007800104078004a
:10321c000004e000f8ff3a000080fa00000006000d
:10322c000000fa0022c2bf00614060000004e00010
:10323c00fcff3200301180000000fb000080fa001f
:10324c00000006000400fa00004f780011479800b7
:10325c0022479800eefb070006c2bf0061406000e9
:10326c000004e000fcff3a002e40900001c4b300c3
:10327c0001407000e8fb07002c0007001e4078009e
:10328c00e5fb0700290007001e409000e2fb070049
:10329c0026000700eefb070006c2bf00644060007a
:1032ac000004e000fcff3a000080fa000000060079
:1032bc000400fa002047980031479800d4fb07001f
:1032cc0006c2bf00614060000004e000fcff3a0051
:1032dc00be40900000c4b30000c07000cefb0700dd
:1032ec00120007002e409000cbfb07000f000700d8
:1032fc00d9fb0700b3fb0700be40900010c4b3001d
:10330c0000c07000c4fb070008000700d4fb0700d6
:10331c00004f7800dafb0700cdfb0700a9fb070084
:10332c001e80fb000080fa00000006000000fa007e
:10333c0008c2bf00614060000004e000fcff3a00de
:10334c0009c2bf000044b2000004e000fcff3a00d8
:10335c0009c2bf0001c8b300014060000004e000d6
:10336c00fbff3a000080fa00000006000400fa009f
:10337c008040eb0030c1b300cdff07000080fb00a4
:10338c00100798000000eb00000f78001e00900062
:10339c004400de00610060000000e00001003a0023
:1033ac001e00a0001e0090004300de0061006000c3
:1033bc000000e00001003a001e10a0001e0090006a
:1033cc004200de00610060000000e00001003a00f5
:1033dc001e20a0001e0090000000d10061006000c3
:1033ec000000e00001003a001e30a0001e0090001a
:1033fc00610060000000e00001003a001e40a000e7
:10340c001e0078000080fb000080fa00000006001f
:10341c000400fa0010079800390007000040eb0088
:10342c00004f7800070037001e80fb0080007800fa
:10343c001e00900000804000104078001a00070029
:10344c001e4fe8001e80fb00800078001e009000dc
:10345c0000804000104078000004e000f2ff3a00c9
:10346c000080fa00000006000200fa00004f78000d
:10347c000041eb0001c4b30030c1b30071ff070081
:10348c000041eb009e40780020c1b3006dff0700a7
:10349c000041eb008040eb0030c1b30069ff070036
:1034ac000080fa00000006000200fa00004f7800cd
:1034bc00a0c0b3009e4f100003003a0000ccb30034
:1034cc00e9ff07000c0037000041eb0001ccb30012
:1034dc0030c1b3005bff07000041eb009e40780059
:1034ec0020c1b30057ff07000041eb0001c8b30037
:1034fc0030c1b30053ff07000080fa000000060043
:10350c000000fa0010c0b300d7ff070060c0b30082
:10351c00d5ff07000080fa00000006000000fa004a
:10352c0080c0b300d0ff0700100020005306070036
:10353c000080fa00000006000200fa00000f78007c
:10354c00efff07001e007800020007000080fa0061
:10355c00000006000200fa00000f7800040037009b
:10356c001e007800104078001e0fe800ceff070008
:10357c001e007800104078000004e000f8ff3a00cc
:10358c000080fa00000006000200fa00004f7800ec
:10359c001e4078006f4060000043b000004f780080
:1035ac0090c3b3009e4f1000040036001e407800fc
:1035bc006740400010479800020037001e4078001a
:1035cc00104798001e409000b7ff07000080fa00db
:1035dc00000006000200fa00004f78001e80fb007d
:1035ec004400de00e8ff07001e407800e6ff0700fd
:1035fc000080fa00000006000200fa00000f7800bc
:10360c001e0078004800de00f2ff07001e00780064
:10361c00f0ff07000080fa00000006000400fa002a
:10362c00008fbe001e00be004008de00010020001e
:10363c00f1ff07001e007800efff07000080fa0082
:10364c00000006000200fa000040eb00004f78007a
:10365c000040eb00004f780008003700c442a9007e
:10366c00c462a800100020001b060700c462a90059
:10367c0010002000180607001e4fe800f0cbb30026
:10368c009e4f1000f5ff3600c442a900c482a8006a
:10369c001000200010060700c482a90010002000b2
:1036ac00f60507000080fa00000006000400fa008e
:1036bc00100798000040eb00004f78000040eb0032
:1036cc00004f7800110037001e80fb00800078004e
:1036dc001e00900000804000104078000080fb002d
:1036ec00610060000004e00002003200c442a80047
:1036fc0001003700c442a900c462a80010002000d9
:10370c00f5050700c462a9001e4fe800f0cbb3001a
:10371c009e4f1000ecff3600c482a8001000200061
:10372c00ed050700c482a9000080fa000000060025
:10373c00c400fa0010a7980000c9b300004f78002d
:10374c0000c9b300004f7800090037001e81fb0050
:10375c001e80fb00800078001ea0900000804000be
:10376c00904078000e00e800017178001e4fe800d0
:10377c00f0cbb3009e4f1000f4ff36001ea090005b
:10378c0001092000808040000e00e8005078910074
:10379c00804878001ea09000110920008080400015
:1037ac000e00e80060789100804878001ea0900020
:1037bc0021092000808040000e00e8007078910004
:1037cc00804878001ea090003109200080804000c5
:1037dc000e00e80020789100804878001ea0900030
:1037ec0041092000808040000e00e80030789100f4
:1037fc00804878001ea09000510920008080400075
:10380c000e00e80040789100804878001ea09000df
:10381c0061092000808040000e00e800707091006b
:10382c00804878001ea09000710920008080400024
:10383c000e00e80000789100804878001ea09000ef
:10384c0081092000808040000e00e8001078910073
:10385c00804878001ea090009109200080804000d4
:10386c000e00e80040709100804878001ea0900087
:10387c00a1092000808040000e00e80050709100eb
:10388c00804878001ea09000b10920008080400084
:10389c000e00e80060709100804878001ea0900037
:1038ac00c1092000808040000e00e80010709100db
:1038bc00804878001ea09000d10920008080400034
:1038cc000e00e80020709100804878001ea0900047
:1038dc00e1092000808040000e00e800307091006b
:1038ec00804878001ea09000f109200080804000e4
:1038fc000e00e80060689100804878001ea09000df
:10390c00010a2000808040000e00e80070689100e1
:10391c00804878001ea09000110a20008080400092
:10392c000e00e80000709100804878001ea0900006
:10393c00210a2000808040000e00e80030689100d1
:10394c00804878001ea09000310a20008080400042
:10395c000e00e80040689100804878001ea090009e
:10396c00410a2000808040000e00e8005068910061
:10397c00804878001ea09000510a200080804000f2
:10398c000e00e80000689100804878001ea09000ae
:10399c00610a2000808040000e00e8001068910051
:1039ac00804878001ea09000710a200080804000a2
:1039bc000e00e80020689100804878001ea090005e
:1039cc00810a2000808040000e00e80050609100c9
:1039dc00804878001ea09000910a20008080400052
:1039ec000e00e80060609100804878001ea09000f6
:1039fc00a10a2000808040000e00e8007060910059
:103a0c00804878001ea09000b10a20008080400001
:103a1c000e00e80020609100804878001ea0900005
:103a2c00c10a2000808040000e00e8003060910048
:103a3c00804878001ea09000d10a200080804000b1
:103a4c000e00e80040609100804878001ea09000b5
:103a5c00e10a2000808040000e00e80070589100c0
:103a6c00804878001ea09000f10a20008080400061
:103a7c000e00e80000609100804878001ea09000c5
:103a8c00010b2000808040000e00e80010609100c7
:103a9c00804878001ea09000110b20008080400010
:103aac000e00e80040589100804878001ea090005d
:103abc00210b2000808040000e00e800505891003f
:103acc00804878001ea09000310b200080804000c0
:103adc000e00e80060589100804878001ea090000d
:103aec00410b2000808040000e00e800105891002f
:103afc00804878001ea09000510b20008080400070
:103b0c000e00e80020589100804878001ea090001c
:103b1c00610b2000808040000e00e80030589100be
:103b2c00804878001ea09000710b2000808040001f
:103b3c000e00e80060509100804878001ea09000b4
:103b4c00810b2000808040000e00e8007050910036
:103b5c00804878001ea09000910b200080804000cf
:103b6c000e00e80000589100804878001ea09000dc
:103b7c00a10b2000808040000e00e8003050910026
:103b8c00804878001ea09000b10b2000808040007f
:103b9c000e00e80040509100804878001ea0900074
:103bac00c10b2000808040000e00e80050509100b6
:103bbc00804878001ea09000d10b2000808040002f
:103bcc000e00e80000509100804878001ea0900084
:103bdc00e10b2000808040000e00e80010509100a6
:103bec00804878001ea09000f10b200080804000df
:103bfc000e00e80020509100804878000080fa0008
:103c0c0000000600c600fa0020a7980010c0b30000
:103c1c00304798000040eb00204798000040eb0034
:103c2c00104798000040eb00004f780010c0b30024
:103c3c0030479800100037003e4090000080fb0099
:103c4c00800078002ea09000008140003e40900043
:103c5c000080fb00800078002ea0900000804000c7
:103c6c000000e90010407800004978003e409000c8
:103c7c000040e80030479800be409000f0c2b3000e
:103c8c0080cf5000ecff36003e4090000040e80032
:103c9c00304798002ea09000f10520008080400055
:103cac002ea090000003b0001040780080487800ef
:103cbc0010c3b30030479800100037003e4090000e
:103ccc000080fb00800078002ea090000081400056
:103cdc003e4090000080fb00800078002ea09000f9
:103cec00008040000000e800104078000049780097
:103cfc003e4090000040e80030479800be409000e5
:103d0c00f0c5b30080cf5000ecff36003e40900071
:103d1c000040e8003047980000c6b30030479800d8
:103d2c000e0037003e4090000081fb003e409000aa
:103d3c000080fb00800078002ea0900000804000e6
:103d4c009040780064004700000041000148780072
:103d5c003e4090000040e80030479800be40900084
:103d6c00f0c8b30080cf5000eeff36002ea09000bc
:103d7c00d008b00090407800214798002ea0900009
:103d8c00e008b00090407800114798002ea09000f9
:103d9c00f008b000104f780030c6b30030479800e0
:103dac000f0037003e4090000080fb008000780040
:103dbc002ea09000008140003e4090000080fb004f
:103dcc00e300500064004700008040001040780081
:103ddc00004978003e4090000040e80030479800d1
:103dec00be409000f0c8b30080cf5000edff36000d
:103dfc002ea090000006b000ae4090000148780064
:103e0c002ea090001006b0009e4090000148780053
:103e1c002ea090002006b0001e4878002ea0900026
:103e2c000009b00090407800214798002ea0900027
:103e3c001009b00090407800114798002ea0900017
:103e4c002009b000104f780000c9b300304798002b
:103e5c00100037003e4090000080fb00800078008e
:103e6c002ea09000008140003e4090000080fb009e
:103e7c00800078002ea0900000804000630040007d
:103e8c0010407800004978003e4090000040e80067
:103e9c0030479800be409000c0cbb30080cf50009c
:103eac00ecff36002ea09000d00bb000ae4090007e
:103ebc00014878002ea09000e00bb0009e409000ce
:103ecc00014878002ea09000f00bb0001e4878003e
:103edc000080fa00000006000200fa00004f780093
:103eec001e04e00007003a0001c1b300104020009e
:103efc00e502070010402000100307000004e0005a
:103f0c00fcff3a000080fa00000006000200fa00f4
:103f1c00004f78001e04e00007003a0081c0b30097
:103f2c0010402000d80207001040200003030700b7
:103f3c000004e000fcff3a000080fa0000000600dc
:103f4c000800fa0020479800314798002207980093
:103f5c000040eb00004f78002e4090000004e00081
:103f6c00030032001e80fb0030079800260037004b
:103f7c0030402000f10207000004e00002003a008b
:103f8c002e409000d4ff0700be409000004020005f
:103f9c00bd020700ae00900000f02f000080600012
:103fac004800de008040780040402000b602070048
:103fbc002e0090008040780050402000b202070094
:103fcc0011c0b30010402000af02070010402000c9
:103fdc00da0207000004e000fcff3a003040200049
:103fec00d6020700f34f500003003a0010c0b30094
:103ffc00004f7800020037002e409000b6ff0700fb
:10400c001e80fb00300798003e0090000080fa00f4
:10401c00000006000600fa00204798000040eb0064
:10402c00004f78002e4090000004e00003003200a6
:10403c001e80fb002007980016003700304020003f
:10404c00be020700f34f500010003a0021c0b3002d
:10405c00104020008c02070010402000b70207001f
:10406c000004e000fcff3a0030402000b3020700df
:10407c00f44f500003003a0010c0b300004f78001a
:10408c00020037002e40900093ff07001e80fb00bb
:10409c00200798002e0090000080fa000000060017
:1040ac001400fa00881f7800204f980061079800d0
:1040bc00720798007e0090000000e00003003200c0
:1040cc002e4890000004e000030032000000eb00da
:1040dc00100f98006900370000422000970207007b
:1040ec000080fb00100798009e009000f00f20004d
:1040fc00008060004804dd00104220008f020700a1
:10410c000080fb0000004400100798001f003700df
:10411c00100020005903070000422000870207000e
:10412c000080fb00100798009e009000f00f20000c
:10413c00008060004804dd00104220007f02070070
:10414c000080fb0000004400100798000040eb00ca
:10415c0000579800803e20009e0f10000200360091
:10416c0010c0b300005798001e0fe8000e509000ce
:10417c000004e000050032002e48900063ff0700a9
:10418c000000eb00100f98003c0037009e009000e0
:10419c007e009000808f5000ddff390040422000ef
:1041ac00660207000080fb0040079800ce009000dc
:1041bc00f00f2000008060004804dd005042200019
:1041cc005e0207000080fb000000440030079800ee
:1041dc00130037007e0090000000e9007007980083
:1041ec00be009000f07f2000808060000000240062
:1041fc0000804000200798006e00900090407800ee
:10420c002e009000200207003e0090000000e80005
:10421c00300798006e0090000000e80060079800de
:10422c007e0090000000e000eaff3a00be00900023
:10423c0000f02f00008060004800de008040780015
:10424c0040422000100207003e00900080407800a1
:10425c00504220000c02070001c2b30010402000a5
:10426c000902070010402000340207000004e0009f
:10427c00fcff3a0010002000100f98001e08900060
:10428c004f0478000080fa00000006000e00fa00cf
:10429c00881f7800604798004107980052079800e3
:1042ac005e0090000000e000030032006e409000c1
:1042bc000004e000030032001000200060079800aa
:1042cc003f003700de00900000202000808f50005f
:1042dc0002003600e01f20005007980080422000aa
:1042ec00160207000080fb0020079800ae0090002b
:1042fc00f00f2000008060004804dd009042200098
:10430c000e0207000080fb0000004400100798001c
:10431c00130037005e0090000000e9005007980081
:10432c009e009000f07f200080806000000026003e
:10433c00008f40001e0078000002070080407800cb
:10434c004e009000014878001e0090000000e8002c
:10435c00100798004e0090000000e80040079800fd
:10436c005e0090000000e000eaff3a00ce009000f2
:10437c000040eb00804878009e00900000f02f0079
:10438c00008060004800de00804078008042200001
:10439c00bd0107001e009000804078009042200074
:1043ac00b901070001c4b30010402000b60107009a
:1043bc0010002000b10207001000200060079800d8
:1043cc006e0090004f0478000080fa000000060098
:1043dc000000fa00881f780060422000d701070017
:1043ec000080fb004804dd0070422000d301070070
:1043fc000080fb00000044004f0478000080fa00ad
:10440c00000006000a00fa00200798003107980007
:10441c003e0090004ff70700000f78000000eb0003
:10442c00100798000e0037009e0090002e009000a0
:10443c00008040001e017800be0090004cf7070081
:10444c000000e00003003a001e00900040079800b6
:10445c000b0037001e0090000000e80010079800c9
:10446c009e0090002e0090000080400010407800cc
:10447c000004e000ecff3a000080eb0040079800dd
:10448c004e0090000080fa00000006003600f80094
:10449c00809fbe00829fbe00849fbe00869fbe0090
:1044ac000000fa008460a90005e1a9000000eb00ff
:1044bc000008880005e1a800a05e80000000e8006c
:1044cc00a05e8800a15e8000301f2000808f50000d
:1044dc000e00360004cabf00e14f500006003a003f
:1044ec0040a5200071fc070040a52000c5fd070079
:1044fc0010002000a05e880004cabf000004e00089
:10450c0002003a000080eb0099fa07000080fa00e4
:10451c004f03be004f02be004f01be004f00be0055
:10452c003600f900004006002000fa0050f90700a0
:10453c0092f8070050012000403a880060022000e9
:10454c00303a880044c7bf00f043b20044e7b700dc
:10455c00417420009140780000ceb30000c0600090
:10456c0044e7b70037fc070040a5200070fc0700ab
:10457c00a5f80700d3f8070080a12000a4fb0700d2
:10458c00b5000700c3000700c3a0200002a1200053
:10459c0061a0200040a12000cd000700c962a90045
:1045ac00cd62a8000040eb0000e8b7000000eb0073
:1045bc001050880010c0b30004eab70000002800b7
:1045cc00000f780000003700304020005b0107002e
:1045dc00004f98000e4890000080fb00700f980070
:1045ec007e089000f80f500098003200fe089000f2
:1045fc00f88f500007003c007e0890000000e0009f
:10460c0009003200fe089000f78f500013003200b2
:10461c00edff3700fe0890007a805000e30f500049
:10462c00e9ff3e008900370000c8bf0002052000ea
:10463c0011c0b30042fe07000004e000e2ff3200ac
:10464c0000c8bf0073fe07000004e000deff3a0064
:10465c001000200009020700dbff37005cff070099
:10466c00300798003e0090000000e000740032001b
:10467c0000c8bf003e0190001180200003ff07001e
:10468c000000e000d0ff320010802000c11429008f
:10469c005cff0700200798001080200021152900de
:1046ac0058ff0700100798002e0090000000e00053
:1046bc0003003d001e0090000000e0005d0035008e
:1046cc001e0090000000e0000e003500108020005d
:1046dc00911529004bff07000000e0000200340098
:1046ec000040eb0004eab7001080200011162900ee
:1046fc0044ff07000000e0000200340010c0b300cb
:10470c0004eab7001080200091162900550009001a
:10471c00315878006005b10010802000f11b290091
:10472c007df60700108020008af607000001780053
:10473c0000c8bf001180200059fe07000000e000f7
:10474c00a1ff32006efb070004cabf00a1fb0700eb
:10475c0004cabf00e14f500009003a00690047004d
:10476c008040eb000148780073004700612d290060
:10477c0007000900315878008000b10008003700ac
:10478c0069004700612d29000700090031587800a5
:10479c008000b100f30047000040eb008048780037
:1047ac0010802000e12d29002e00090031587800de
:1047bc00f002b10010802000e900470056f6070017
:1047cc0010802000d130290053f607001080200003
:1047dc00d131290050f6070010802000f30047006b
:1047ec004df6070010802000d13429004af607004e
:1047fc0010802000f135290047f6070010802000ba
:10480c00e136290044f607001080200061382900a9
:10481c0041f60700108020004ef6070000017800da
:10482c0000c8bf00118020001dfe07000000e00042
:10483c0065ff320000c8bf00b4fd070062ff3700ff
:10484c00100020008d0107005fff370000c8bf007b
:10485c00a1fd07005cff37000000fa0042c7a90069
:10486c007000200040358800007020001036880051
:10487c00800020002036880042c7a800c8e2a800ab
:10488c00c082a900c962a900cd62a8000080fa000c
:10489c00000006000000fa008540a9009540a90020
:1048ac0040c2a9004382a9004362a9004342a90067
:1048bc004302a90042e2a90042c2a90042a2a800f8
:1048cc004322a90041e2a8000080fa000000060083
:1048dc000800fa00000f78001107980022079800d2
:1048ec003307980001c8b3000000eb006600070016
:1048fc0010002000610107001e0078009040780035
:10490c0010002000600007001e00e80090407800b6
:10491c00200020005c0007001e80e800904078001a
:10492c0030002000580007009e0078006380400093
:10493c009040780040002000530007001000200039
:10494c004e0107001e00900090407800900020005f
:10495c004d0007001e0090000000e8009040780019
:10496c00a0002000480007001e0090000080e80016
:10497c0090407800b0002000430007001e0090001b
:10498c006300400090407800c00020003e0007000b
:10499c001e0090006400400090407800d000200081
:1049ac00390007001e009000650040009040780020
:1049bc00e000200034000700100020002f01070049
:1049cc002e00900090407800500020002e00070030
:1049dc002e0090000000e80090407800600020005d
:1049ec00290007002e0090000080e800904078001d
:1049fc0070002000240007002e009000630040008f
:104a0c0090407800800020001f000700100020005c
:104a1c001a0107003e00900090407800f000200042
:104a2c00190007003e0090000000e800904078005c
:104a3c0000012000140007003e0090000080e800f8
:104a4c0090407800100120000f0007003e009000fd
:104a5c006300400090407800200120000a0007000d
:104a6c00100020000501070051c0b300a001200078
:104a7c000500070051c0b300b00120000200070080
:104a8c000080fa00000006000600fa0010079800eb
:104a9c0041479800cd62a90040128000000f7800b9
:104aac00000f20004012880040c2bf00614060002f
:104abc000004e000fcff320040128000000f780080
:104acc009e00900000f02f00008060004800de0087
:104adc004012880040c2bf00614060000004e0004a
:104aec00fcff320040128000000f78009e00900006
:104afc00f00f2000008060004012880040c2bf0010
:104b0c00614060000004e000fcff320040128000b5
:104b1c00000f78004e4090000080fb00401288008f
:104b2c0040c2bf00614060000004e000fcff3200a6
:104b3c00cd62a8000080fa00000006000400fa0014
:104b4c0010079800cd62a90040128000000f780079
:104b5c00f00020004012880040c2bf00614060009d
:104b6c000004e000fcff320040128000000f7800cf
:104b7c009e00900000f02f00008060004800de00d6
:104b8c004012880040c2bf00614060000004e00099
:104b9c00fcff320040128000000f78009e00900055
:104bac00f00f2000008060004012880040c2bf005f
:104bbc00614060000004e000fcff32004012800005
:104bcc00000f780040c2a9000000eb0040128800e2
:104bdc0040c2bf00614060000004e000fcff3200f6
:104bec00cd62a800401280000080fb000080fa001b
:044bfc0000000600af
:020000040000fa
:104c0000060a0000d0010000020000000016360075
:104c1000de58f600c0a8010082ffff00ff00c000c0
:104c2000a801010075426f0061726400202020001d
:104c300020202000202020002020200020202000f4
:104c400020202000202020002020200020202000e4
:104c500020202000202020002057650062206200d4
:104c60006f617200642073006974650000000000c9
:104c70000000000001000000010000000101000030
:104c8000010100000101000001010000000100001d
:104c9000000100000001010000010100000101000d
:104ca00000000100000001000000010001000100ff
:104cb00001000100010000000100000001010000ee
:104cc00001010000010100000101000000010000dd
:104cd00000010000000101000001010000010100cd
:104ce00000000100000001000000010001000100bf
:104cf00001000100010000000100000001010000ae
:104d0000010100000101000001010000000100009c
:104d1000000100000000010000000100000001008f
:104d2000000001000000010000000100010001007e
:104d3000010001000100000001000000010100006d
:104d4000010100000101000001010000000100005c
:104d5000000100000000010000000100000001004f
:104d6000000001000000010000000100010001003e
:104d70000100010000000000000000000000000031
:104d80000000000000000000000000000000000023
:104d90000000000000000000000000000000000013
:104da0000000000000000000000000000000000003
:104db00000000000000000000000000000000000f3
:104dc00000000000000000000000000000000000e3
:104dd00000000000000000000000000000000000d3
:104de00000000000000000000000000000000000c3
:104df00000000000010100000000000000000000b1
:104e000000010000000000000000000000000100a0
:104e10000000000000000000000000000000000092
:104e20000000000000000000000000000000000082
:104e30000000000001010000000000000000000070
:104e40000001000000000000000000000000010060
:104e50000000000000000000000000000000000052
:104e60000000000000000000000000000000000042
:104e70000000000001000000000800000602000021
:084e800000000000000000002a
:020000040000fa
:104e88000600fa00200798000c00370090e2200086
:104e980001002000008fbe00040037000080eb00f6
:104ea8008080eb001e0f40005e9748001e00be0089
:104eb800e00f5000e08f5800f8ff3a002e009000f5
:104ec8000000e900200798002e009000e10f400044
:104ed800eeff3a000080fa00000006000600fa0023
:104ee800200798000c003700400020000100200037
:104ef800008fbe00040037000080eb008080eb00cc
:104f08001e0f40005e9748001e00be00e00f5000d4
:104f1800e08f5800f8ff3a002e0090000000e900ea
:104f2800200798002e009000e10f4000eeff3a00a5
:084f38000080fa0000000600f1
:020000040000fa
:044f40000000fe006f
:00000001FF
