:020000040000fa
:080000000210040000000000e2
:020000040000fa
:1020000004000000afee2000007f240000018800e3
:10201000000000000c00070020c123000100200088
:1020200011000700000020000000e0000200320064
:102030000000020000000000a837020000000000bd
:102040000040da000000fe004440a900801f20008c
:102050000000e0000300320000002000a001880022
:102060004440a8000000060091018800800078002c
:102070000000eb0015003700e280400032a0b40001
:102080009101ba00e280400032a0b4009102ba008f
:10209000e280400032a0b4000002eb00472bde00db
:1020a000f507b200602ce10004003a000059eb0093
:1020b0008301e900fdff3e00040037006128e100d4
:1020c000010032000082eb00040007001101ba0099
:1020d0000200e000e8ff3a00000006003159ba00b3
:1020e0008301e9000c0032002159ba008301e900a4
:1020f000080032000400e00003003a00e2804000e3
:1021000032a0b400f5ff370011d9ba008301e9000d
:10211000faff3a008100e800e180400032a0b400fc
:1021200000000600ec10040000000000ea190400a2
:1021300000000000000004000000000080017800a2
:102140008002eb000100370084597800050351003c
:10215000828f52000900320065c278008502e800d3
:102160000404e000f8ff3a00830078000681410093
:102170008058eb00828f5000fdff3a0000000600ff
:102180008001780000017800010037000201e800ba
:102190001204e000fdff3a00020037000201e800ef
:1021a0008100e80011407800004978000004e00058
:1021b000faff3a0003007800000006008000780073
:1021c000010037000000e8001004e000fdff3a00c5
:1021d0000100500000000600889fbe0080047800c7
:1021e00001007800020478008901780011002000c5
:1021f00020000700880f5000010032008004eb002f
:10220000090078004f04be00000006000000fa003c
:102210004fb99700e881570021e12000c00e21004e
:10222000690007000080fa00000006000002780044
:102230000000eb000b0037009441780091cf510073
:10224000030032000080eb00090039001000050097
:102250000000e8000304e000040032000402e8008b
:102260008100e800820f5000f3ff3a000000eb000d
:1022700000000600889fbe008a9fbe008c9fbe00a3
:102280008e1f7800810678008304780000067800ad
:102290000288b900000778000000e00002003a0060
:1022a00000017800420037000d00e00040003200dd
:1022b00000057800c900900069009000808f5000f0
:1022c0000400390009007800f80007000000e00071
:1022d00029003500004020001900600003003a008a
:1022e0000a047800800578000b0037000a017800a6
:1022f000a10020000c0078002f0107008005780065
:102300000000e00002003a000a04780002003700f2
:102310000c0050000004e800c90190006900900022
:1023200003005000880f50000200310000047800c4
:102330008005eb00080178008c007800030078002d
:1023400027010700080646000805550049009000cf
:1023500000004400c00498000b00e00004003200bc
:1023600009007800250107000000e00002003a00a3
:102370000a00e000cfff3a00008020001900600052
:1023800002003200090078001c01070000c0200094
:10239000190060000200320049009000e00498003b
:1023a0000a005700110009000d80d80000017800d4
:1023b000020078004f0778004f06be004f05be00b0
:1023c0004f04be00000006006200fa00889fbe00b5
:1023d0008a9fbe000004be000205780083007800da
:1023e00060f92f000f0040004101070088979f000f
:1023f00099979f000000eb00a09f9f009a457800ee
:102400000b80fb000000ea00cf04de0050c2b300e6
:1024100080cf550002003200090478000100370027
:102420000904e9000800e0000b0034001f90970049
:10243000080178008a0078008f919700030001005e
:1024400090979f000000e000930032002f989700c3
:1024500000004400a09f9f000905450050c2b30042
:1024600080cf5500040032000b04e000e3ff3a0087
:102470002f989700890037000000eb00809f9f0095
:10248000f0979f00e0979f00d0979f00c0979f0014
:10249000b0979f00c09f9f000900370000e920000f
:1024a000008050000000400041e82000e10078007a
:1024b0004f98970001007000c09f9f000a05e80038
:1024c0001a4478008800fb0000e920000d01070095
:1024d000800078000000e000f0ff3a00a0c2b300e6
:1024e000804f54000e003a00bf8897000180e90039
:1024f000b08f9f0010007800b09f9f000000e000a8
:1025000005003d000000ea00b09f9f004f98970033
:102510000020a000c09f9f000a05e80010003700bf
:10252000b19f9f0003fd2f00f4ff27000800370034
:102530003f989700840f5000040032006a00b900f1
:102540000000410003004000b09f9f000a05e80022
:102550001a01fb0003004100e90f5000f4ff3600b0
:10256000e0c2b3009a4f1000040032000080eb007c
:10257000909f9f008a0478001c0037008a04e800be
:10258000a0c2b300994f100007003a00bf8897001f
:102590000180e900b08f9f0010007800909f9f009d
:1025a0008a84e800110037000000eb00909f9f0034
:1025b00003fd2f00f4ff2700080037001f98970045
:1025c000840f5000040032006a00b900000041008e
:1025d00003004000909f9f008904e8001901fb0060
:1025e00003004100e90f5000f4ff36001944780061
:1025f0008800fb0060e92000c20007000000e00046
:1026000002003a0000447800010037008904e80025
:10261000a87f9f0080c6b300804f540004003a009a
:10262000994f14000a003a00664050000600370037
:10263000c0c6b300804f540005003a00994f140003
:1026400003003a0065404000a07f9f008904e80035
:102650000905e800cbfb2f008f8545001901fb0021
:1026600060f92f000f0040000084e8008b01780023
:102670008000780008007800ab0007000000e00050
:1026800005003a008b00780008007800e901070097
:102690000000e00059ff3d000080eb004f05be0048
:1026a0004f04be000080fa0000000600889fbe00b4
:1026b00000047800c0019000600090008000eb00f2
:1026c000808f51003900390018017800200029005e
:1026d00000006100e20f50000700320000202000df
:1026e0000200e0000100350000202400000c710011
:1026f0008080eb002d003700010026000100610002
:10270000810f500008003a0038009000808f51007f
:102710000500390008007800380007008080eb00d1
:102720000000e00021003a0000c020001800600016
:1027300017003a00a8049000600220000800400042
:10274000808f540012003a0000202000830207000e
:1027500080007800200498000000e00005003a00a6
:1027600029049800490498000900e8003004980002
:10277000060037001860a000400498000020b00058
:1027800030049800410c9800510c9800c5020700d5
:1027900028009000500498003800900060049800d1
:1027a00000002600180c70008000eb00010078008b
:1027b0004f04be00000006008001eb00040037005b
:1027c0008301e80090cf1000040032000000e80010
:1027d000828f5100faff3a000000eb000000060073
:1027e0008001eb000200370061f079008301e8000e
:1027f000828f5100fcff3a0000000600889fbe0057
:10280000000478000000e0000e003a008004780028
:10281000a8dd2000180078000000e000040032006d
:10282000f6ff07000000e00001003d008084eb009f
:102830000884e800a0de2000800f54002900320048
:10284000f4ff37000000220018006000240032006e
:10285000a80490000800370009015000384090009b
:102860000000fb0089007800b70407000000e000ca
:10287000130034008084440048009000808f54008e
:10288000f5ff3900280090004004980018017800f6
:1028900000c020000000610002003200a80090008b
:1028a00001003700b8009000000024000000610023
:1028b0000a003200610498008004eb000900370030
:1028c000280090004004980060049800500c980084
:1028d0001890a0008084eb0002003700510c980093
:1028e00080047800090078004f04be000000060054
:1028f0000200fa00f1bf9f00010878000080fa0092
:1029000000000600040037000204e00001003a0065
:10291000000005000000e80010417800814f5100e0
:10292000f9ff3a0000000600889fbe008a1f780069
:1029300000047800010278008244780003057800e2
:10294000e0c6b300804f5100d200320015003c00b9
:102950006b405000804f5100240032000a003c00c0
:1029600070405000804f51000f0132006540400020
:10297000804f51007400320050c2b300804f5100ac
:1029800020013a001c01370040c6b300804f5100bf
:102990001b00320065404000804f510019013a0091
:1029a0001700370030c7b300804f5100fe003200df
:1029b00007003c0064405000804f5100620032002c
:1029c0000040e800804f51000e013a00e700370058
:1029d00050c7b300804f51005b003200634040009d
:1029e000804f510007013a00570037009180e900fd
:1029f000010a780078009000917178000701370093
:102a0000a8609000c0c6b30080cf50000a003a0012
:102a10009400780064805000000a78001000be0026
:102a20004f89de00cf91de000002be000203780075
:102a3000820378001300370010c7b30080cf500026
:102a400003003200a0c6b30080cf500006003a0059
:102a50009400780068805000000a78003002be00c0
:102a60002003be00070037001480e900000a780048
:102a70001000780000027800cfa2de000503780085
:102a800086037800049cbe000694be00a8609000f7
:102a900080c6b30080cf50000e00320020c6b300c5
:102aa00080cf500005003a000400fb00cf80de001c
:102ab00001017800820178000a00370040c7b300a6
:102ac00080cf5000030032006640400080cf5000ad
:102ad00006003a0004007800cf80de000101780093
:102ae00082017800009cbe000294be003800be0047
:102af0002801be00e00f5000e08f5800e00f5900a1
:102b0000e08f590003003d0078009000d1c2b3006f
:102b10000a003700081090000018a30003003200dc
:102b200078009000b1c2b300040037000008a30091
:102b3000530032007800900001c2b30001757800a4
:102b40000000e8004d003700a8609000c0c6b30048
:102b500080cf500006003a00940078006480500056
:102b6000000a78001002be006033b800130037007e
:102b700010c7b30080cf500003003200a0c6b300de
:102b800080cf500006003a00940078006880500022
:102b9000000a78003002be002003be0007003700a4
:102ba0001480e900000a7800100078000002780024
:102bb000050020000600200007002000049cbe0045
:102bc0000694be00a860900080c6b30080cf50007d
:102bd0000e00320020c6b30080cf500005003a003e
:102be0000480fb0001002000020020000300200000
:102bf0000a00370040c7b30080cf50000300320006
:102c00006640400080cf500006003a000400780083
:102c1000010020000200200003002000009cbe00f4
:102c20000294be00081090000038a3001400320087
:102c30003800be002801be00e00f5000e08f5800b1
:102c4000e00f5900e08f59000d00320080c7b3003b
:102c500080cf54000300320080c5b30080cf540001
:102c600007003a007800900001c3b30001757800b6
:102c70008000e80009f578000080e8007004980002
:102c800078009000000045006004980089407800ba
:102c900042003700a8609000c0c6b30080cf50004b
:102ca000250032000a003c006440500080cf5000f4
:102cb0002800320000c0e80080cf5000140032002d
:102cc0006840500080cf500022003a000a003700d0
:102cd00040c7b30080cf50001e0032006640400065
:102ce00080cf50001b0032006940500080cf500060
:102cf00018003a00060037001480e900000a780046
:102d000010007800485c90000848780045003700c3
:102d10001480e900000a780010027800680890002a
:102d2000cf80de000101780082017800009abe00a9
:102d30000292be003b0037001480e900000a7800d0
:102d40001001780068089000cf80de000089be0086
:102d5000340037001480e900000a78001000780081
:102d6000680c9000080878002e0037001180e900f8
:102d70008008780010007800cf80de000101780024
:102d800082017800009cbe000294be007800900092
:102d9000000045006004980081c7b3000800780077
:102da000980107001f0037001480e900000a78002e
:102db0001000780060049800580990000200e000bc
:102dc00002003d00fdfc0700090037008000eb0019
:102dd00079fe0700800078000000e0000300320068
:102de00068009000008050000100370058089000f3
:102df000100c98000b0037007800900002757800e6
:102e00000600370078009000800045000904e000cb
:102e100001003a0059c2b300894878000000e80078
:102e2000700498000000eb004f0578004f04be00ce
:102e3000000006000400fa00889fbe008a9fbe00c2
:102e40008c1f78000004780001067800700890005c
:102e5000f800900001005000880890000100500028
:102e60009808900001005000a80890000100500050
:102e7000b808900001005000c8089000810550007b
:102e80000002220090bf9f0000032300a0bf9f000c
:102e9000081090000028a30018003a000b00e00082
:102ea000160034008b04780009057800e28f540086
:102eb000020036002a002000020037000900e0006e
:102ec0000b00340058009000c80190000a017800ff
:102ed000ee80570003000100500498000000e0005d
:102ee000960032006808900000004500600c9800d1
:102ef0008a8454004240a900ebff3c007801900016
:102f00000200e0000b00340058009000c80190005f
:102f10008c00780003000100500498000000e000dd
:102f20008600320068089000f80090000100400020
:102f3000600c9800880c90000900e0001500340037
:102f400009057800e28f5400020036002a002000b4
:102f5000020037000900e0000b0034005800900028
:102f6000c80190000a017800ec80570003000100be
:102f7000500498000000e0007000320068089000e3
:102f800000004500600c98008a8454004240a9006b
:102f9000ebff3c00180990000200e0000b00340039
:102fa000e800900058009000c80190000300010064
:102fb000500498000000e0006000320068089000b3
:102fc0009808900001004000600c9800a80c900048
:102fd0000900e0001500340009057800e28f540074
:102fe000020036002a002000020037000900e0003d
:102ff0000b00340058009000c80190000a017800ce
:10300000ec80570003000100500498000000e0002d
:103010004a0032006808900000004500600c9800eb
:103020008a8454004240a900ebff3c00380990001c
:103030000200e0000d003400e80090001808900045
:103040008080400058009000c801900003000100fb
:10305000500498000000e00038003200680890003a
:10306000b808900001004000600c9800c80c900067
:103070000900e0001500340009057800e28f5400d3
:10308000020036002a002000020037000900e0009c
:103090000b00340058009000c80190000a0178002d
:1030a000ec80570003000100500498000000e0008d
:1030b000220032006808900000004500600c980073
:1030c0008a8454004240a900ebff3c0008109000a5
:1030d0000028a3001b0032000b00e00019003400a0
:1030e0008b04780009057800e28f54000200360056
:1030f0002a002000020037000900e0000b00340025
:1031000058009000c80190000a017800ee80570036
:1031100003000100500498000000e00007003200a6
:103120006808900000004500600c98008a845400f4
:103130004240a90003003400eaff37000080eb00a2
:10314000010037000000eb004f0678004f05be007d
:103150004f04be000080fa0000000600889fbe00f9
:10316000e30440000900a100808f54004a003600ab
:10317000e38f540001003e004900200002758000ea
:103180000200e00002003200820078000c003700ec
:1031900021ea200003003700908f540023003600fe
:1031a0008080e800110078000000e000faff3a009b
:1031b0000f003700908f54001c0036008080e8001c
:1031c000110078000000e000faff3a0012017800d8
:1031d00021ea200003003700908f540013003600ce
:1031e0008080e80011007800820f5000faff3a005a
:1031f000f8748000890f5400010031000904780040
:1032000008007800080207000000e00004003a000f
:10321000890f5400200032000804d100f5ff370068
:103220000818780007020700d4ff37001101780062
:103230009201780064805100890f50000300310032
:103240001200900080087800070037000900410054
:103250008008780092019000130098001100780017
:103260001288140009097800910078000100e0003c
:1032700005003200110090000000e0000200320062
:103280000180e800010037000000eb0000758800b5
:103290000280e800010037000000eb004f04be0090
:1032a00000000600881f780048ea20001804e000ab
:1032b00004003a00a09e21001602070020c0b300bf
:1032c000004c78004f04780000000600889fbe0084
:1032d0000004780049fd0700800478000004200005
:1032e000180060000200320028009000d50107009d
:1032f0000000eb0020049800384090000004e0003b
:10330000050035000000fb00d90f07000000e000b9
:10331000010032008084eb00181090000000e000f3
:10332000080032003f0207000000e0000100320008
:103330008084eb0018109000c20107000000eb0031
:1033400010149800000820001800600010003200df
:103350000000eb00a1dd2000910f140007003200f7
:103360000000e8008180e800e80f5000faff3a0012
:1033700008007800b3010700130037000001400087
:103380008000eb00a0dd200001307900f8ff37005d
:10339000000c780000c0eb00304498006002200070
:1033a0000800400020049800400498005004980051
:1033b000400c980060049800500c9800700498002d
:1033c00076004400000c9800090078004f04be000d
:1033d00000000600881f780088de200018007800b2
:1033e0000000e00001003200b8ff07000884e90097
:1033f00080dd2000800f5400f8ff3a004f04780071
:10340000000006002f03b000889fbe008a9fbe0008
:103410008c9fbe008e1f78000007780030e72000e8
:10342000c0b79f0080c5b30080cf500008003200b5
:1034300022e62000c2b79f007740400080cf5000b6
:1034400003003a0083002000b3b79f000a00370052
:1034500080c7b30080cf500005003200a4002000d8
:10346000b4b79f0080c5b30080cf500002003a007f
:1034700005012000b5b79f003e04be002e05be002a
:1034800040c6b30080cf50000300320065404000ca
:1034900080cf50000b003a00e00f5400e08f5c003a
:1034a000e00f5d00e08f5d0006003d006000b800a9
:1034b0006011b80008045000898458000a055900ba
:1034c0008b855900bfb39700e88f5300030032008b
:1034d000f08f530045003a0002003700360020000c
:1034e0000100370046002000e00f5400e08f5c0030
:1034f000e00f5d00e08f5d0005003a005e0890007f
:1035000081012000a1b79f000000e0000800320008
:103510003fb197000200e90008006000cfb19700ba
:103520006340780090df9f0074012000a4b79f00e3
:10353000860278008502e900050033008b05d10082
:103540000a85d3008984d3000884d300f9ff3700ab
:10355000089fbe000a97be00afb397000700e900be
:1035600021fc2f008f804000008240003fb1970077
:103570008202e90012003700afb397008703e90029
:10358000a7b79f0000806200cfb09700615278001b
:103590003e00be002e01be00860378008703e900ce
:1035a000050033008381d1000281d3008180d300e4
:1035b0000080d300f9ff3700009fbe000297be00d5
:1035c0003e00be002e01be00e00f5000e08f58000c
:1035d000e00f5900e08f5900d6003400afb39700d8
:1035e0000700e000e4ff3c00d2003700ae6090002e
:1035f00080c6b30080cf50000b00320006003c00b4
:103600000104e000080032006640500080cf500006
:1036100073003a0004003700c0c6b30080cf5000ea
:103620006f003a0031003700080178000800e00020
:1036300005003a005e08900081012000a1b79f00bc
:103640000000e00009003200bfb19700110009003e
:103650000381d8008000fd004fb2970064407800dd
:1036600090df9f0075012000a5b79f00bfb39700b2
:10367000110009000781d80080017800afb09700e1
:103680000100e90022fc2f000f014100000241006f
:103690000c003700bfb29700110009008501d80067
:1036a00000017800afb397008703e900a7b79f0038
:1036b0000590b90000805100cfb0970061527800aa
:1036c000820178000300e000030034002fb197006e
:1036d0000200e000efff3c0003007800cf80de0036
:1036e00001017800820178003a0037000806be0028
:1036f000e00f5400e08f5c0005003a005e08900087
:1037000083012000a3b79f000000e0000900320001
:103710003fb297006121b9000c00be00750107009f
:10372000cfb297006540780090df9f0077012000be
:10373000a7b79f003fb297006121b9000c00be00ff
:103740006f0107000006be00afb297000500e90058
:1037500027fc2f008f8343008083430097b79f008f
:10376000110037003fb197006114b9000801be0095
:103770000c00be00720107000005be00afb197004b
:103780008301e900a3b79f000801be0053010700b1
:10379000000056001fb29700cfb297006552780024
:1037a00094b79f000a06be00e00f5600e08f5e004f
:1037b00003003400afb397000700e000e9ff3c00ce
:1037c0004feade00cfa2de000c00be00040178004c
:1037d00084017800009fbe000297be0055003700ac
:1037e000e00f5400e08f5c00e00f5d00e08f5d00b3
:1037f00005003a005e08900081012000a1b79f00fb
:103800000000e0000d0032003fb197000202780096
:10381000cfa2de0005037800860378000800be0012
:103820000a01be00d60107004fb29700644078003d
:1038300090df9f0075012000a5b79f003fb1970062
:1038400002027800cfa2de0005037800860378002c
:103850000800be000a01be00c2010700009fbe00b2
:103860000297be00afb197000300e90024fc2f00cf
:103870000f0242000006420020003700bfb297004e
:1038800005047800cfc4de00090578008a057800b9
:103890000802be000a03be005fa89700efa89700c9
:1038a0007fa997008fb19700b9010700d0b79f009b
:1038b000e1b79f00f2b79f0083bf9f00afb39700af
:1038c0008703e900a7b79f000802be000a03be00f5
:1038d000350207005faa970000005200cfb29700a0
:1038e000655678005fb09700efb097007fb1970002
:1038f0008fb99700009fbe000297be003e00be0039
:103900002e01be00d0af9f00e1af9f00f2af9f003d
:1039100083b79f00e00f5000e08f5800e00f590080
:10392000e08f590003003400afb097000100e000c1
:10393000d2ff3c003fb19700e80f510013003a005e
:103940000e1090000038a30010003200afb19700b5
:10395000f78f510006003e0024fc2f000f024200aa
:103960008300420000c3b300914f100007003200f3
:10397000afb297008502e900a5b79f0000c3b3006e
:1039800027fc2f008f83430080f37a00afb19700ac
:1039900078811100120f98006e00900024fc2f0017
:1039a0000f024200830042008dfb07001e099000b9
:1039b0005e089000800f510006003d00020050009c
:1039c000000f98000e1090000040a1000017980012
:1039d0000f0037000000e0000d003d000e109000c9
:1039e00074006000f00f500009003a007e0890005b
:1039f000fe009000010050008e0890000100500071
:103a0000020050004240a90001003400000f98005d
:103a10004f0778004f06be004f05be004f04be00a2
:103a20002f03b100000006000000e0000300340096
:103a300085000700e10f400001003a000000eb00a4
:103a4000000006000000e000310032008080e90044
:103a500091027800e38f52002d0036000508a30084
:103a60002b003a00127580000200e00002003200d4
:103a7000828f500004003100020878001175880020
:103a80001600370003017800920190000300e00067
:103a900002003200818f5100faff390012027800d3
:103aa00004004100808f500019003900810f500040
:103ab00003003a0005094200820078000700370041
:103ac0000300e0000300320005804000808f5100b9
:103ad0000f00390093009800110198001101900027
:103ae0000200e0000a00320011804000820f500006
:103af00007003a0000ea20000008eb0011009000e7
:103b0000110178009008410010009000900098008a
:103b10000000060000017800000020000000e00026
:103b200008003200000080000000e00005003200c4
:103b30000000e90000008800000040000100800053
:103b400002b07800000006000a00fa008001780048
:103b5000e20f500028003e0030758000e10f500059
:103b600008003200802320000000e0000500320041
:103b70000423200025232000462320008001780014
:103b800004003700042220002522200046222000c5
:103b900083222000144090000004e000040035005f
:103ba0008009eb00144090000074a00010429800bf
:103bb000154090000028a30003003a001540900033
:103bc0000024a000904298008001eb00070037001d
:103bd000154090000008a300fdff320063c078008c
:103be0000000fb00000b78008301e800828f510089
:103bf000f7ff3a000800370030002000b0bf9f00f8
:103c0000c3bf9f00d1bf9f00e2bf9f006a805700e3
:103c100000c0da006fb99700020078000080fa0057
:103c2000000006000a00fa0051002000b1bf9f000a
:103c3000c0bf9f006a80570000c0da005fb89700dd
:103c40000080fa0000000600889fbe008004780013
:103c5000407580000000e00003003a0010000700fb
:103c60000000e0000a003500407580000900e00017
:103c700002003a00000478000600370000047800d3
:103c800009004000060007000000e00001003d00c0
:103c90000084eb00080078004f04be00000006001e
:103ca000800078000000e00004003a00a0ea200054
:103cb0004075880001017800060037000081eb00a4
:103cc000a0ee2000808f500002003e004175880069
:103cd0000001eb000200780000000600020ab900b3
:103ce000001bb9000200b8008100420081004300bf
:103cf00000000600020007000400be0000000600ed
:103d00006022b800060220000000d0008180d200ae
:103d10000482d2008582d2000000a000020252007c
:103d200083825a00030031000202420083824a006b
:103d30000000a1000603e900f3ff3a0000000600be
:103d4000839f68000100e00002003d006000100059
:103d5000e08018000300e00002003d006001110057
:103d6000e0811900e6ff07004f00e00002003b0081
:103d700060001000e080180000000600881f780036
:103d8000000478005001be004000be000400400066
:103d9000858048000601490087814900009cbe00db
:103da0000294be000400e1000588e1000690e100f5
:103db0000798e10002003100680044001008e800a4
:103dc0004f04780000000600f4874700889fbe007b
:103dd0008a9fbe008c9fbe008e1f78000205be0029
:103de0000004be00d4b79f00e5b79f00f6b79f0060
:103df00087bf9f000000eb00c0b79f00b0b79f00d7
:103e0000a0b79f0090b79f0080b79f000d042000cf
:103e1000bfb097004fb09700000140000000e000e5
:103e20000f003d004f08de0000007100c0b79f008a
:103e30009e00070001003d0012002000a1000700c5
:103e400001003d0012002000a6000700b10007009d
:103e5000b60007000f004000c8ff0700220037002f
:103e60004f08de0000067100ccb79f008f000700ee
:103e700001003d00120020009200070001003d00fb
:103e80001200200097000700a20007000fb2970061
:103e90009fb297002fb39700bfb39700a900070008
:103ea0000000520081805a0002015b0083815b00a8
:103eb00080b79f0091b79f00a2b79f00b3b79f0044
:103ec0000007eb009f0007000020e10001a8e100cf
:103ed00002b0e10003b8e100010031001e00200043
:103ee0000e005600c0b79f004fb297000400e000dc
:103ef0000700350010002000010020006011b8000c
:103f000008047000898470000a0571008b857100b7
:103f10008d06e900beff3a000400e00003003d000a
:103f2000820007000f00400094ff07004fa8970091
:103f30000000e00004003a000fb497009fb497001f
:103f40002fb59700bfb59700940007004f07780082
:103f50004f06be004f05be004f04be004f01b1002a
:103f600000000600881f780018002000881f7800d5
:103f700095ff07008f87e9004f04780000000600d6
:103f8000801feb0090ff07008f87e900000006000c
:103f9000889fbe008a9fbe008c1f78006e000700bd
:103fa00007003d0073000700e00f5b00e08f5b003f
:103fb00007003d00320007000006eb000400370058
:103fc0003400070002003d002a0007001c0020000a
:103fd00072000700e3ff07000203be000002be00fc
:103fe0000c00e00001003200220007000400be00c7
:103ff0000601be004f0678004f05be004f04be000c
:1040000000000600889fbe008a9fbe008c1f7800bb
:104010005100070005003d0056000700e00f5b005f
:10402000e08f5b0006003d00040037001900070028
:1040300003003d006000b8006011b80010000700e8
:1040400056000700ceff07000203be000002be00bc
:104050000c00e00001003200060007000400be0072
:104060000601be004f0678004f05be004f04be009b
:10407000000006006000b8006011b80000003700c2
:1040800004025000858258000603590087835900b6
:10409000000006000006eb00e00f5200e08f5a001f
:1040a000e00f5b00e08f5b00000006000180400035
:1040b00090b79f000001eb008fb097000100e00077
:1040c000000006000200700090b79f0001804000d1
:1040d00080b79f000001eb00ffa897000100e000ff
:1040e000000006000200700080b79f0001804000c1
:1040f0006faa9700cf20de0001007000f0af9f0094
:1041000004024200250007004f18de000002720082
:1041100000000600e4af9f000804440089844c00be
:104120000a054d008b854d00000006003fb2970048
:10413000cfb297005fb39700efb3970000fe2f0058
:10414000000006003fb09700cfb097005fb1970026
:10415000efb19700000006000205be000004be009b
:10416000e00f5000e08f5800e00f5900e08f590039
:10417000000006006000b8006011b800080450009c
:10418000898458000a0559008b8559001c002000bd
:10419000e00f5200e08f5a00000006000800be0049
:1041a0000a01be0000000600889fbe008a9fbe0074
:1041b0008c1f78000205be000004be000006eb0064
:1041c000e00f5000e08f5800e00f5900e08f5900d9
:1041d00007003d006000b8006011b80008045000fe
:1041e000898458000a0559008b8559001c0020005d
:1041f000e00f5200e08f5a00e00f5b00e08f5b00a1
:1042000002003d000f0007000c00a2000800be00e5
:104210000a01be00120007000203be000002be0039
:104220000c00e00001003200060007000400be00a0
:104230000601be004f0678004f05be004f04be00c9
:10424000000006006000b8006011b80004025000d1
:104250008582580006035900878359000000060034
:10426000889fbe008a9fbe008c9fbe000404b800d9
:104270000506b8008904460060854e000606b800b1
:104280000a054600e0854e000706b8008b0546008b
:10429000040eb800890446000a854e00e0854d00f2
:1042a000050eb8000a0546008b854e00060eb800c4
:1042b0008b0546000416b8000a0546008b854e00a3
:1042c0000516b8008b054600041eb8008b05460095
:1042d0000800be000a01be004f06be004f05be002a
:1042e0004f04be0000000600211088003010880036
:1042f0000000060006c2bf000008a300fdff3a0050
:1043000006c2bf000028a300faff3a0006c2bf00a1
:104310000038a300f7ff3a0006c2bf000018a30050
:10432000f4ff3a0006c2bf000048a300f1ff3a00c4
:1043300009c2bf000068a300eeff3a0000000600bb
:104340000602a800000006000080fb001010880094
:104350000080eb000842e2000800350009c2bf00ff
:104360000068a300fdff3a00e2ff0700e0ff2f0016
:104370000942e200010035000000eb0000000600e9
:104380000642a800000006000622a8000000060061
:104390000662a80006c2bf000038a300fdff3a0075
:1043a00008c2a900001080000080fb000000060089
:0c43b00006a2a8000682a800000006007b
:020000040000fa
:0200000401f009
:04000000ffff0000fe
:020000040000fa
:0200000401f009
:04000400ffff0000fa
:020000040000fa
:0200000401f009
:04000800ffff0000f6
:020000040000fa
:0200000401f009
:04000c0079ff000078
:020000040000fa
:0200000401f009
:040010009bff000052
:020000040000fa
:0200000401f009
:040014007fff00006a
:020000040000fa
:0200000401f009
:04001800eeff0000f7
:020000040000fa
:0200000401f009
:04001c00deff000003
:020000040000fa
:100008003c4000003c4000003c4000003c400000f8
:100018003c4000003c4000003c4000003c400000e8
:100028003c4000003c4000003c40000038340000e8
:100038003c4000003c4000003c4000003c400000c8
:100048003c4000003c4000003c4000003c400000b8
:100058003c4000003c4000003c4000003c400000a8
:100068003c4000003c4000003c4000003c40000098
:100078003c4000003c4000003c4000003c40000088
:100088003c4000003c4000003c4000003c40000078
:100098003c4000003c4000003c4000003c40000068
:1000a8003c4000003c4000003c4000003c40000058
:1000b8003c4000003c4000003c4000003c40000048
:1000c8003c4000003c4000003c4000003c40000038
:1000d8003c4000003c4000003c4000003c40000028
:1000e8003c4000003c4000003c4000003c40000018
:1000f8003c4000003c4000003c4000003c40000008
:100108003c4000003c4000003c4000003c400000f7
:100118003c4000003c4000003c4000003c400000e7
:100128003c4000003c4000003c4000003c400000d7
:100138003c4000003c4000003c4000003c400000c7
:100148003c4000003c4000003c4000003c400000b7
:100158003c4000003c4000003c4000003c400000a7
:100168003c4000003c4000003c4000003c40000097
:100178003c4000003c4000003c4000003c40000087
:100188003c4000003c4000003c4000003c40000077
:100198003c4000003c4000003c4000003c40000067
:1001a8003c4000003c4000003c4000003c40000057
:1001b8003c4000003c4000003c4000003c40000047
:1001c8003c4000003c4000003c4000003c40000037
:1001d8003c4000003c4000003c4000003c40000027
:1001e8003c4000003c4000003c4000003c40000017
:0801f8003c4000003c40000007
:020000040000fa
:100208003c4000003c4000003c4000003c400000f6
:100218003c4000003c4000003c4000003c400000e6
:100228003c4000003c4000003c40000038340000e6
:100238003c4000003c4000003c4000003c400000c6
:100248003c4000003c4000003c4000003c400000b6
:100258003c4000003c4000003c4000003c400000a6
:100268003c4000003c4000003c4000003c40000096
:100278003c4000003c4000003c4000003c40000086
:100288003c4000003c4000003c4000003c40000076
:100298003c4000003c4000003c4000003c40000066
:1002a8003c4000003c4000003c4000003c40000056
:1002b8003c4000003c4000003c4000003c40000046
:1002c8003c4000003c4000003c4000003c40000036
:1002d8003c4000003c4000003c4000003c40000026
:1002e8003c4000003c4000003c4000003c40000016
:1002f8003c4000003c4000003c4000003c40000006
:100308003c4000003c4000003c4000003c400000f5
:100318003c4000003c4000003c4000003c400000e5
:100328003c4000003c4000003c4000003c400000d5
:100338003c4000003c4000003c4000003c400000c5
:100348003c4000003c4000003c4000003c400000b5
:100358003c4000003c4000003c4000003c400000a5
:100368003c4000003c4000003c4000003c40000095
:100378003c4000003c4000003c4000003c40000085
:100388003c4000003c4000003c4000003c40000075
:100398003c4000003c4000003c4000003c40000065
:1003a8003c4000003c4000003c4000003c40000055
:1003b8003c4000003c4000003c4000003c40000045
:1003c8003c4000003c4000003c4000003c40000035
:1003d8003c4000003c4000003c4000003c40000025
:1003e8003c4000003c4000003c4000003c40000015
:0803f8003c4000003c40000005
:020000040000fa
:1043bc0047450000542000002f000000504f000023
:1043cc0053540000202f00000072000061640000b4
:1043dc00696f00003d300000007200006164000055
:1043ec00696f00003d31000000480000545400008b
:1043fc00502f0000312e0000302000003230000021
:10440c00302000004f4b00000d0a0000436f0000ed
:10441c006e740000656e0000742d0000547900006d
:10442c00706500003a20000074650000787400008c
:10443c002f680000746d00006c0d00000a0d000068
:10444c000a3c0000626f00006479000020730000d9
:10445c00747900006c6500003d2200006261000070
:10446c00636b0000677200006f7500006e640000e3
:10447c002d6300006f6c00006f7200003a46000064
:10448c004646000046460000463b0000223e000027
:10449c000d0a0000003c0000687400006d6c000008
:1044ac003e3c0000626f0000647900003e0d00008d
:1044bc000a3c000073700000616e00002073000065
:1044cc00747900006c6500003d220000636f0000f1
:1044dc006c6f0000723a000023450000353200007a
:1044ec0030380000412200003e0d00000a3c000064
:1044fc00666f00006e7400002066000061630000af
:10450c00653d0000225600006572000064610000e9
:10451c006e61000022200000636f00006c6f0000d1
:10452c00723d000046460000303000003636000078
:10453c003e0d00000a3c0000683200003e420000c4
:10454c006c6f000058690000206900006e74000058
:10455c006572000066610000636500003c2f00007e
:10456c00683200003e0d00000a3c00006834000078
:10457c003e750000426f0000617200006420000074
:10458c00262000005765000062200000626f0000ca
:10459c0061720000643c00002f680000343e000093
:1045ac000d0a00003c6600006f7200006d200000d8
:1045bc006d650000746800006f6400003d2200000f
:1045cc00504f000053540000223e00000d0a000022
:1045dc000063000068650000636b00006564000008
:1045ec00003c0000703e00003c6900006e70000052
:1045fc00757400002074000079700000653d0000a7
:10460c002272000061640000696f0000222000002b
:10461c006e6100006d6500003d22000072610000bb
:10462c00646900006f22000020760000616c0000bd
:10463c00756500003d2200003022000020000000c3
:10464c003e540000757200006e2000006f66000082
:10465c00660d00000a0000003c620000723e000083
:10466c003c6900006e70000075740000207400003e
:10467c0079700000653d000022720000616400004a
:10468c00696f0000222000006e6100006d65000063
:10469c003d22000072610000646900006f2200007e
:1046ac0020760000616c0000756500003d22000062
:1046bc0031220000200000003e4c00006f7500000d
:1046cc006e670000652000006d6f000064650000df
:1046dc000d0a0000003c00002f73000074720000f3
:1046ec006f6e0000673e00003c7000003e0d000045
:1046fc000a0000003c6900006e7000007574000038
:10470c002074000079700000653d000022730000e9
:10471c00756200006d690000742200003e0d0000ff
:10472c000a0000003c2f0000666f0000726d000054
:10473c003e3c00002f730000706100006e3e0000d4
:10474c003c2f0000626f0000647900003e3c0000ca
:10475c002f680000746d00006c3e00000d0a000014
:10476c0000450000727200006f7200003a200000d9
:10477c00706c000065610000736500002072000021
:10478c00657300006574000020570000353100008f
:10479c0030300000206300006869000070000000e9
:020000040000fa
:1047ac000200fa000040eb00004f78000040eb00e4
:1047bc00004f780008003700c442a900c462a8006a
:1047cc0010002000120e0700c462a9001000200087
:1047dc000f0e07001e4fe800f0cbb3009e4f1000e9
:1047ec00f5ff3600c442a900c482a80010002000c6
:1047fc00070e0700c482a90010002000ed0d070071
:10480c000080fa00000006000800fa00000f780093
:10481c00214798002e4090000080fb006101b900f8
:10482c000080eb008080eb00020140008381480097
:10483c002207980033079800f000200001002000a8
:10484c002e019000be019000800f5100818f590005
:10485c0022023e002e009000be009000006001007d
:10486c000f0037002f0037004f0037006f00370064
:10487c008f003700af003700cf003700ef00370054
:10488c000f0137002f0137004f0137006f01370040
:10489c008f013700af013700cf013700ef01370030
:1048ac000000eb000f0207000000eb000d020700f8
:1048bc000000eb000b0207000000eb0009020700f0
:1048cc000000eb00070207000000eb0005020700e8
:1048dc000000eb00030207000000eb0001020700e0
:1048ec000000eb00ff0107000000eb00fd010700da
:1048fc000000eb00fb0107000000eb00f9010700d2
:10490c000000eb00f70107000000eb00f5010700c9
:10491c000000eb00f30107001e007800f101070016
:10492c00ee0137000000eb00ee0107000000eb0089
:10493c00ec0107000000eb00ea0107000000eb00af
:10494c00e80107000000eb00e60107000000eb00a7
:10495c00e40107000000eb00e20107000000eb009f
:10496c00e00107000000eb00de0107000000eb0097
:10497c00dc0107000000eb00da0107000000eb008f
:10498c00d80107000000eb00d60107000000eb0087
:10499c00d40107001e007800d20107001e00780029
:1049ac00d0010700cd0137000000eb00cd0107005e
:1049bc000000eb00cb0107000000eb00c901070071
:1049cc000000eb00c70107000000eb00c501070069
:1049dc000000eb00c30107000000eb00c101070061
:1049ec000000eb00bf0107000000eb00bd01070059
:1049fc000000eb00bb0107000000eb00b901070051
:104a0c000000eb00b70107000000eb00b501070048
:104a1c001e007800b30107001e007800b1010700ea
:104a2c001e007800af010700ac0137000000eb005e
:104a3c00ac0107000000eb00aa0107000000eb002e
:104a4c00a80107000000eb00a60107000000eb0026
:104a5c00a40107000000eb00a20107000000eb001e
:104a6c00a00107000000eb009e0107000000eb0016
:104a7c009c0107000000eb009a0107000000eb000e
:104a8c00980107000000eb00960107001e0078005b
:104a9c00940107001e007800920107001e007800a8
:104aac00900107001e0078008e0107008b01370073
:104abc000000eb008b0107000000eb0089010700f0
:104acc000000eb00870107000000eb0085010700e8
:104adc000000eb00830107000000eb0081010700e0
:104aec000000eb007f0107000000eb007d010700d8
:104afc000000eb007b0107000000eb0079010700d0
:104b0c000000eb00770107001e007800750107001c
:104b1c001e007800730107001e0078007101070069
:104b2c001e0078006f0107001e0078006d01070061
:104b3c006a0137000000eb006a0107000000eb007f
:104b4c00680107000000eb00660107000000eb00a5
:104b5c00640107000000eb00620107000000eb009d
:104b6c00600107000000eb005e0107000000eb0095
:104b7c005c0107000000eb005a0107000000eb008d
:104b8c00580107001e007800560107001e0078002f
:104b9c00540107001e007800520107001e00780027
:104bac00500107001e0078004e0107001e0078001f
:104bbc004c010700490137000000eb0049010700d8
:104bcc000000eb00470107000000eb004501070067
:104bdc000000eb00430107000000eb00410107005f
:104bec000000eb003f0107000000eb003d01070057
:104bfc000000eb003b0107000000eb00390107004f
:104c0c001e007800370107001e00780035010700f0
:104c1c001e007800330107001e00780031010700e8
:104c2c001e0078002f0107001e0078002d010700e0
:104c3c001e0078002b010700280137000000eb0054
:104c4c00280107000000eb00260107000000eb0024
:104c5c00240107000000eb00220107000000eb001c
:104c6c00200107000000eb001e0107000000eb0014
:104c7c001c0107000000eb001a0107001e00780061
:104c8c00180107001e007800160107001e007800ae
:104c9c00140107001e007800120107001e007800a6
:104cac00100107001e0078000e0107001e0078009e
:104cbc000c0107001e0078000a01070007013700ed
:104ccc000000eb00070107000000eb0005010700e6
:104cdc000000eb00030107000000eb0001010700de
:104cec000000eb00ff0007000000eb00fd000700d8
:104cfc000000eb00fb0007001e007800f900070025
:104d0c001e007800f70007001e007800f500070071
:104d1c001e007800f30007001e007800f100070069
:104d2c001e007800ef0007001e007800ed00070061
:104d3c001e007800eb0007001e007800e900070059
:104d4c00e60037000000eb00e60007000000eb0077
:104d5c00e40007000000eb00e20007000000eb009d
:104d6c00e00007000000eb00de0007000000eb0095
:104d7c00dc0007001e007800da0007001e00780037
:104d8c00d80007001e007800d60007001e0078002f
:104d9c00d40007001e007800d20007001e00780027
:104dac00d00007001e007800ce0007001e0078001f
:104dbc00cc0007001e007800ca0007001e00780017
:104dcc00c8000700c50037000000eb00c500070055
:104ddc000000eb00c30007000000eb00c10007005f
:104dec000000eb00bf0007000000eb00bd00070057
:104dfc001e007800bb0007001e007800b9000700f9
:104e0c001e007800b70007001e007800b5000700f0
:104e1c001e007800b30007001e007800b1000700e8
:104e2c001e007800af0007001e007800ad000700e0
:104e3c001e007800ab0007001e007800a9000700d8
:104e4c001e007800a7000700a40037000000eb004c
:104e5c00a40007000000eb00a20007000000eb001c
:104e6c00a00007000000eb009e0007001e00780069
:104e7c009c0007001e0078009a0007001e007800b6
:104e8c00980007001e007800960007001e007800ae
:104e9c00940007001e007800920007001e007800a6
:104eac00900007001e0078008e0007001e0078009e
:104ebc008c0007001e0078008a0007001e00780096
:104ecc00880007001e00780086000700830037006a
:104edc000000eb00830007000000eb0081000700de
:104eec000000eb007f0007001e0078007d0007002b
:104efc001e0078007b0007001e0078007900070078
:104f0c001e007800770007001e007800750007006f
:104f1c001e007800730007001e0078007100070067
:104f2c001e0078006f0007001e0078006d0007005f
:104f3c001e0078006b0007001e0078006900070057
:104f4c001e007800670007001e007800650007004f
:104f5c00620037000000eb00620007000000eb006d
:104f6c00600007001e0078005e0007001e0078003d
:104f7c005c0007001e0078005a0007001e00780035
:104f8c00580007001e007800560007001e0078002d
:104f9c00540007001e007800520007001e00780025
:104fac00500007001e0078004e0007001e0078001d
:104fbc004c0007001e0078004a0007001e00780015
:104fcc00480007001e007800460007001e0078000d
:104fdc0044000700410037000000eb0041000700cf
:104fec001e0078003f0007001e0078003d000700ff
:104ffc001e0078003b0007001e00780039000700f7
:10500c001e007800370007001e00780035000700ee
:10501c001e007800330007001e00780031000700e6
:10502c001e0078002f0007001e0078002d000700de
:10503c001e0078002b0007001e00780029000700d6
:10504c001e007800270007001e00780025000700ce
:10505c001e00780023000700200037001e00780097
:10506c00200007001e0078001e0007001e007800bc
:10507c001c0007001e0078001a0007001e007800b4
:10508c00180007001e007800160007001e007800ac
:10509c00140007001e007800120007001e007800a4
:1050ac00100007001e0078000e0007001e0078009c
:1050bc000c0007001e0078000a0007001e00780094
:1050cc00080007001e007800060007001e0078008c
:1050dc00040007001e007800020007000080fa00a0
:1050ec00000006000400fa00100798000040eb00d6
:1050fc00004f78000040eb00004f780011003700a3
:10510c001e80fb00800078001e0090000080400094
:10511c00104078000080fb00610060000004e0009b
:10512c0002003200c442a80001003700c442a900aa
:10513c00c462a80010002000b50b0700c462a900cf
:10514c001e4fe800f0cbb3009e4f1000ecff360072
:10515c00c482a80010002000ad0b0700c482a90077
:10516c000080fa0000000600c400fa0010a79800a6
:10517c0000c9b300004f780000c9b300004f78009d
:10518c00090037001e81fb001e80fb0080007800a8
:10519c001ea0900000804000904078000e00e800b7
:1051ac00017178001e4fe800f0cbb3009e4f100049
:1051bc00f4ff36001ea09000010920008080400002
:1051cc000e00e80050789100804878001ea09000f6
:1051dc0011092000808040000e00e80060789100ea
:1051ec00804878001ea0900021092000808040009b
:1051fc000e00e80070789100804878001ea09000a6
:10520c0031092000808040000e00e80020789100d9
:10521c00804878001ea0900041092000808040004a
:10522c000e00e80030789100804878001ea09000b5
:10523c0051092000808040000e00e8004078910069
:10524c00804878001ea090006109200080804000fa
:10525c000e00e80070709100804878001ea090004d
:10526c0071092000808040000e00e8000078910059
:10527c00804878001ea090008109200080804000aa
:10528c000e00e80010789100804878001ea0900075
:10529c0091092000808040000e00e80040709100d1
:1052ac00804878001ea09000a1092000808040005a
:1052bc000e00e80050709100804878001ea090000d
:1052cc00b1092000808040000e00e8006070910061
:1052dc00804878001ea09000c1092000808040000a
:1052ec000e00e80010709100804878001ea090001d
:1052fc00d1092000808040000e00e8002070910051
:10530c00804878001ea09000e109200080804000b9
:10531c000e00e80030709100804878001ea09000cc
:10532c00f1092000808040000e00e80060689100c8
:10533c00804878001ea09000010a20008080400068
:10534c000e00e80070689100804878001ea0900064
:10535c00110a2000808040000e00e80000709100cf
:10536c00804878001ea09000210a20008080400018
:10537c000e00e80030689100804878001ea0900074
:10538c00310a2000808040000e00e8004068910047
:10539c00804878001ea09000410a200080804000c8
:1053ac000e00e80050689100804878001ea0900024
:1053bc00510a2000808040000e00e8000068910037
:1053cc00804878001ea09000610a20008080400078
:1053dc000e00e80010689100804878001ea0900034
:1053ec00710a2000808040000e00e80020689100c7
:1053fc00804878001ea09000810a20008080400028
:10540c000e00e80050609100804878001ea09000cb
:10541c00910a2000808040000e00e800606091003e
:10542c00804878001ea09000a10a200080804000d7
:10543c000e00e80070609100804878001ea090007b
:10544c00b10a2000808040000e00e800206091002e
:10545c00804878001ea09000c10a20008080400087
:10546c000e00e80030609100804878001ea090008b
:10547c00d10a2000808040000e00e80040609100be
:10548c00804878001ea09000e10a20008080400037
:10549c000e00e80070589100804878001ea0900023
:1054ac00f10a2000808040000e00e80000609100ae
:1054bc00804878001ea09000010b200080804000e6
:1054cc000e00e80010609100804878001ea090004b
:1054dc00110b2000808040000e00e8004058910025
:1054ec00804878001ea09000210b20008080400096
:1054fc000e00e80050589100804878001ea09000e3
:10550c00310b2000808040000e00e80060589100b4
:10551c00804878001ea09000410b20008080400045
:10552c000e00e80010589100804878001ea09000f2
:10553c00510b2000808040000e00e80020589100a4
:10554c00804878001ea09000610b200080804000f5
:10555c000e00e80030589100804878001ea09000a2
:10556c00710b2000808040000e00e800605091001c
:10557c00804878001ea09000810b200080804000a5
:10558c000e00e80070509100804878001ea090003a
:10559c00910b2000808040000e00e8000058910024
:1055ac00804878001ea09000a10b20008080400055
:1055bc000e00e80030509100804878001ea090004a
:1055cc00b10b2000808040000e00e800405091009c
:1055dc00804878001ea09000c10b20008080400005
:1055ec000e00e80050509100804878001ea09000fa
:1055fc00d10b2000808040000e00e800005091008c
:10560c00804878001ea09000e10b200080804000b4
:10561c000e00e80010509100804878001ea0900009
:10562c00f10b2000808040000e00e800205091001b
:10563c00804878000080fa0000000600c600fa00de
:10564c0020a7980010c0b300304798000040eb0032
:10565c00204798000040eb00104798000040eb00fa
:10566c00004f780010c0b30030479800100037008e
:10567c003e4090000080fb00800078002ea090003f
:10568c00008140003e4090000080fb0080007800cc
:10569c002ea09000008040000000e900104078002f
:1056ac00004978003e4090000040e80030479800e8
:1056bc00be409000f0c2b30080cf5000ecff36002b
:1056cc003e4090000040e800304798002ea090002b
:1056dc00f1052000808040002ea090000003b00057
:1056ec00104078008048780010c3b3003047980011
:1056fc00100037003e4090000080fb0080007800d6
:10570c002ea09000008140003e4090000080fb00e5
:10571c00800078002ea09000008040000000e8007f
:10572c0010407800004978003e4090000040e800ae
:10573c0030479800be409000f0c5b30080cf5000b9
:10574c00ecff36003e4090000040e80030479800e7
:10575c0000c6b300304798000e0037003e40900062
:10576c000081fb003e4090000080fb008000780030
:10577c002ea090000080400090407800640047000c
:10578c0000004100014878003e4090000040e800d5
:10579c0030479800be409000f0c8b30080cf500056
:1057ac00eeff36002ea09000d008b000904078009c
:1057bc00214798002ea09000e008b000904078009f
:1057cc00114798002ea09000f008b000104f780000
:1057dc0030c6b300304798000f0037003e409000b1
:1057ec000080fb00800078002ea09000008140001b
:1057fc003e4090000080fb00e30050006400470036
:10580c000080400010407800004978003e40900035
:10581c000040e80030479800be409000f0c8b3004c
:10582c0080cf5000edff36002ea090000006b00097
:10583c00ae409000014878002ea090001006b000f9
:10584c009e409000014878002ea090002006b000e9
:10585c001e4878002ea090000009b00090407800ff
:10586c00214798002ea090001009b00090407800bd
:10587c00114798002ea090002009b000104f78001e
:10588c0000c9b30030479800100037003e4090002c
:10589c000080fb00800078002ea09000008140006a
:1058ac003e4090000080fb00800078002ea090000d
:1058bc0000804000630040001040780000497800f0
:1058cc003e4090000040e80030479800be409000f9
:1058dc00c0cbb30080cf5000ecff36002ea0900060
:1058ec00d00bb000ae409000014878002ea0900084
:1058fc00e00bb0009e409000014878002ea0900074
:10590c00f00bb0001e4878000080fa000000060082
:10591c000000fa0050012000403a8800600220008c
:10592c00303a880044c7bf00f043b20044e7b700e8
:10593c00417420009140780000ceb30000c060009c
:10594c0044e7b7000080fa00000006000000fa00ef
:10595c00c042a900c062a900c082a9000080fa0060
:10596c00000006000000fa0042c7a9000020210038
:10597c0010368800300120002036880000402100bd
:10598c0030368800005021005036880042c7a800ed
:10599c000080fa00000006000200fa00c442a900d0
:1059ac00c462a9000000eb00000f78000300370070
:1059bc00c462a800c462a9001e0fe800f000200019
:1059cc009e0f1000faff3400c482a800c482a90004
:1059dc000080fa00000006000400fa000019200004
:1059ec001007980000222800000f78009e009000fd
:1059fc001e00780039fa07003bfa07000041eb0063
:105a0c0081c7b300a0c0b300960207000041eb00b1
:105a1c008040eb00c0c0b300920207000041eb00d5
:105a2c00f1c1b300d0c0b3008e0207000041eb00ff
:105a3c008040eb0020c0b3008a0207000041eb005d
:105a4c008040eb0030c0b300860207000041eb0041
:105a5c008040eb0020c1b300820207000041eb0044
:105a6c008040eb0030c1b3007e0207000041eb0028
:105a7c008040eb000040eb007a0207000041eb0095
:105a8c00f1c1b30010c0b300760207000080fa0029
:105a9c00000006000000fa0021030700f0002000bf
:105aac004409070000c3b300f702070050002000b0
:105abc004009070000c3b300f302070010002000e8
:105acc003c09070000c3b300ef02070010002000e0
:105adc003809070080c3b300eb0207001000200058
:105aec003409070080c1b300e7020700c0c0b3004f
:105afc00e502070010c0b300e302070060c0b3006a
:105b0c00e10207000080fa00000006000000fa0025
:105b1c008461a900411820009140780080cfb30027
:105b2c0000c060006040b30084e1b7000000eb00ef
:105b3c00000c88008a61a900a1182000914078000f
:105b4c0080cfb30000c060006040b3008ae1b700b2
:105b5c000000eb00300c88009061a90001192000b6
:105b6c009140780080cfb30000c060006040b3006b
:105b7c0090e1b7000000eb00600c88001061a900f8
:105b8c000111200091407800f0ccb30000c06000ff
:105b9c0001c2b3000140700010e1b7001021a90050
:105bac0010c1a900001020006008880011e1a800b5
:105bbc001e61a900e111200091407800f0ccb300e7
:105bcc0000c060000044a0001ee1b7001e21a90027
:105bdc001ec1a900401f2000d00888001fe1a800aa
:105bec000080fa00000006000000fa001061a90015
:105bfc000111200091407800f0ccb30000c060008f
:105c0c0010e1b7001021a90010c1a90094e0a80070
:105c1c0084e0a900803e20006008880081e0a80094
:105c2c00710a20009140780000c7b30000c07000da
:105c3c00a7e0b70011e1a8000080fa000000060000
:105c4c000000fa000000eb00200888008460a90026
:105c5c00510a200091407800f0c8b30000c06000e9
:105c6c0001c6b30001407000a5e0b7009460a80025
:105c7c000000eb00000888000080eb001008880092
:105c8c0005e1a8000080fa00000006000000fa0000
:105c9c00108028000011880000402000101188009e
:105cac0040012000401188000080fa00000006002e
:105cbc000000fa00c962a9000001280080088800d1
:105ccc00000128009008880060002000200c88004b
:105cdc0060002000500c880060002000800c8800c0
:105cec0060002000b00c88000080eb00100c8800d5
:105cfc000000eb00000c88000080eb00400c8800da
:105d0c000000eb00300c88000080eb00700c880069
:105d1c000000eb00600c88000080eb00a00c8800f9
:105d2c000000eb00900c88000080fa0000000600d8
:105d3c000000fa000080eb00601988002c03a90019
:105d4c002c23a9002c43a9002c63a9002c83a900a7
:105d5c002143a90023c3bf007f40600023e3b700a9
:105d6c0025e3a90030c0b30024e3b7005132200072
:105d7c009140780000ceb30000c06000f040b3004a
:105d8c0025e3b7003132200091407800c0cfb3003a
:105d9c0000c0600023e3b7002043a90020c3bf006c
:105dac007f40600020e3b700113220009140780062
:105dbc00c0cfb30000c060000004a00021e3b70016
:105dcc0021e3a8000080fa00000006000000fa00a1
:105ddc000080eb00601988002c03a9002c23a9007b
:105dec002c43a9002c63a9002143a90023c3bf00a5
:105dfc007f40600023e3b70025e3a90030c0b30067
:105e0c0024e3b700513220009140780000ceb3005b
:105e1c0000c06000f040b30025e3b70028e3a90000
:105e2c00813220009140780000ceb30000c06000a9
:105e3c000014a00028e3b700313220009140780014
:105e4c00c0cfb30000c0600023e3b7002043a8001c
:105e5c00013220009140780000ceb30000c07000e9
:105e6c0020e3b7001132200091407800c0cfb3007e
:105e7c0000c060000004a00021e3b70021e3a800eb
:105e8c000080fa00000006000000fa004ba7a900f1
:105e9c004ae7a8004bc7bf007040b3004be7b70000
:105eac00013f20009140780000c8b30000c06000a2
:105ebc003040b300f0e3b7000000eb00a01f8800f7
:105ecc00f103a800f3e3a800f2e3a800f1e3a800b3
:105edc000080fa00000006000000fa0021e3a9008f
:105eec00c0ff21006019880023c3bf007f40600001
:105efc0023e3b700a0c0b30024e3b70025e3a90057
:105f0c003132200091407800c0cfb30000c0600057
:105f1c0023e3b70028e3a900013220009140780068
:105f2c0000ceb30000c0700020e3b7005132200057
:105f3c009140780000ceb30000c06000a040b300d8
:105f4c0025e3b7001132200091407800c0cfb30098
:105f5c0000c060000004a00021e3b7002043a800ab
:105f6c002143a80021e3a8000080fa0000000600ed
:105f7c000000fa00f1e3a9004ba7a9004ae7a8002a
:105f8c004bc7bf007040b3004be7b700013f200088
:105f9c009140780000c8b30000c060003040b300ee
:105fac00f0e3b7000000eb00a01f8800f103a8008d
:105fbc00f3e3a800f2e3a800f1e3a8000080fa00e4
:105fcc00000006000200fa00000f780028e3a90088
:105fdc001e0078007f4060007f416000813220000d
:105fec009140780000ceb30000c060000240700009
:105ffc0028e3b7002023a800a00020000408070015
:10600c002023a90020c3bf00614060000004e00011
:10601c00fcff3200001880000080fa00000006002f
:10602c000400fa00000f7800110798001e00780099
:10603c00c01f88001e009000b01f88000080fa006e
:10604c00000006000800fa001007980021079800cd
:10605c00320798000000eb00000f780011003700a9
:10606c00be0090001e0078000088b9004781de0059
:10607c00ae0090001e0078000088b900c781de00d9
:10608c009e0090001e0078000088b9004780de005a
:10609c00830078001e00070050002000c507070091
:1060ac001e0fe800f00720009e0f1000ecff3400dc
:1060bc00f0072000000f780011003700be009000a0
:1060cc001e0078000088b9004781de00ae00900009
:1060dc001e0078000088b900c781de009e00900089
:1060ec001e0078000088b9004780de00830078002d
:1060fc000700070050002000ae0707001e0fe90044
:10610c001e00e000edff3c000080fa0000000600dd
:10611c000600fa00000f780011079800220798007b
:10612c001e007800000c88001e009000300c8800c7
:10613c002e009000600c88000080fa000000060021
:10614c000400fa0010079800c462a900c482a900d8
:10615c000040eb00004f78000d003700c462a8002f
:10616c00c462a9001e009000610060000004e00001
:10617c0002003200c442a80001003700c442a9004a
:10618c001e0090000000d100100798001e4fe80080
:10619c0000c1b3009e4f1000f0ff3600c482a8006f
:1061ac00c482a9000080fa00000006000c00fa006e
:1061bc0020079800310798002e00900040079800a7
:1061cc004e009000e40f5000230032004e0090006f
:1061dc00e40f50000a003e004e009000e20f500009
:1061ec00170032004e009000e20f500017003e00e6
:1061fc004e009000e10f50000e00320025003700d9
:10620c004e009000e60f5000190032004e00900036
:10621c00e60f5000130039004e009000e70f5000bd
:10622c00160032004e009000e80f500016003200ad
:10623c0018003700000028001007980017003700de
:10624c0000002a00100798001400370000802a0074
:10625c00100798001100370000a02a0010079800c2
:10626c000e00370000a82a00100798000b0037001a
:10627c0000aa2a00100798000800370080aa2a00fc
:10628c001007980005003700a0aa2a0010079800f4
:10629c00020037000000eb00100798003e00900051
:1062ac00500798005e009000e40f5000230032006d
:1062bc005e009000e40f50000a003e005e0090006b
:1062cc00e20f5000170032005e009000e20f500009
:1062dc0017003e005e009000e10f50000e003200ef
:1062ec00250037005e009000e60f500019003200c8
:1062fc005e009000e60f5000130039005e00900025
:10630c00e70f5000160032005e009000e80f5000be
:10631c00160032001800370000002400000f78002f
:10632c001700370000002500000f7800140037001c
:10633c0000402500000f78001100370000502500a8
:10634c00000f78000e00370000542500000f780075
:10635c000b00370000552500000f780008003700af
:10636c0040552500000f78000500370050552500da
:10637c00000f7800020037000000eb00000f7800df
:10638c001e0090001e0070006dff07000080fa00d8
:10639c00000006000200fa00004f780023c2bf0084
:1063ac00624060000004e000fcff3a001e80fb002d
:1063bc00201188000080fa00000006000400fa009a
:1063cc0010079800070037001e00900090407800de
:1063dc001e0090000000e8001007980001407800b3
:1063ec00ecff07001e009000104078000004e00055
:1063fc00f5ff3a000040eb00004f78000700370033
:10640c001e80fb00800078001e0090000080400081
:10641c0010407800ac0007001e4fe8001e80fb0007
:10642c00800078001e009000008040001040780032
:10643c000004e000f2ff3a000080fa0000000600c1
:10644c000000fa0022c2bf00614060000004e000be
:10645c00fcff3200301180000000fb000080fa00cd
:10646c00000006000400fa00004f78001147980065
:10647c0022479800aff7070006c2bf0061406000da
:10648c000004e000fcff3a002e40900001c4b30071
:10649c0001407000a9f707002c0007001e4078008f
:1064ac00a6f70700290007001e409000a3f707007d
:1064bc0026000700aff7070006c2bf00644060006b
:1064cc000004e000fcff3a000080fa000000060027
:1064dc000400fa00204798003147980095f7070010
:1064ec0006c2bf00614060000004e000fcff3a00ff
:1064fc00be40900000c4b30000c070008ff70700ce
:10650c00120007002e4090008cf707000f000700c8
:10651c009af7070074f70700be40900010c4b30050
:10652c0000c0700085f707000800070095f707000a
:10653c00004f78009bf707008ef707006af70700fb
:10654c001e80fb000080fa00000006000000fa002c
:10655c0008c2bf00614060000004e000fcff3a008c
:10656c0009c2bf000044b2000004e000fcff3a0086
:10657c0009c2bf0001c8b300014060000004e00084
:10658c00fbff3a000080fa00000006000400fa004d
:10659c008040eb0030c1b300cdff07000080fb0052
:1065ac00100798000000eb00000f78001e00900010
:1065bc004400de00610060000000e00001003a00d1
:1065cc001e00a0001e0090004300de006100600071
:1065dc000000e00001003a001e10a0001e00900018
:1065ec004200de00610060000000e00001003a00a3
:1065fc001e20a0001e0090000000d1006100600071
:10660c000000e00001003a001e30a0001e009000c7
:10661c00610060000000e00001003a001e40a00094
:10662c001e0078000080fb000080fa0000000600cd
:10663c000400fa0010079800390007000040eb0036
:10664c00004f7800070037001e80fb0080007800a8
:10665c001e00900000804000104078001a000700d7
:10666c001e4fe8001e80fb00800078001e0090008a
:10667c0000804000104078000004e000f2ff3a0077
:10668c000080fa00000006000200fa00004f7800bb
:10669c000041eb0001c4b30030c1b30071ff07002f
:1066ac000041eb009e40780020c1b3006dff070055
:1066bc000041eb008040eb0030c1b30069ff0700e4
:1066cc000080fa00000006000200fa00004f78007b
:1066dc00a0c0b3009e4f100003003a0000ccb300e2
:1066ec00e9ff07000c0037000041eb0001ccb300c0
:1066fc0030c1b3005bff07000041eb009e40780007
:10670c0020c1b30057ff07000041eb0001c8b300e4
:10671c0030c1b30053ff07000080fa0000000600f0
:10672c000000fa0010c0b300d7ff070060c0b30030
:10673c00d5ff07000080fa00000006000000fa00f8
:10674c0080c0b300d0ff070010002000190607001e
:10675c000080fa00000006000200fa00000f78002a
:10676c00efff07001e007800020007000080fa000f
:10677c00000006000200fa00000f78000400370049
:10678c001e007800104078001e0fe800ceff0700b6
:10679c001e007800104078000004e000f8ff3a007a
:1067ac000080fa00000006000200fa00004f78009a
:1067bc001e4078006f4060000043b000004f78002e
:1067cc0090c3b3009e4f1000040036001e407800aa
:1067dc006740400010479800020037001e407800c8
:1067ec00104798001e409000b7ff07000080fa0089
:1067fc00000006000200fa00004f78001e80fb002b
:10680c004400de00e8ff07001e407800e6ff0700aa
:10681c000080fa00000006000200fa00000f780069
:10682c001e0078004800de00f2ff07001e00780012
:10683c00f0ff07000080fa00000006000400fa00d8
:10684c00008fbe001e00be004008de0001002000cc
:10685c00f1ff07001e007800efff07000080fa0030
:10686c00000006003600f800809fbe00829fbe002c
:10687c00849fbe00869fbe000000fa008460a900c1
:10688c0005e1a9000000eb000008880005e1a80064
:10689c0008ccbf00e14f500004003a0081dd20001d
:1068ac009140780080c52000d7f707001040800089
:1068bc000000e8001040880000c8bf000040e8005d
:1068cc0000e8b70000c8bf00ef4f50008901360048
:1068dc00d9cdbf00e14f500002003a0010c0b30008
:1068ec00d8edb700d9cdbf00e24f500002003a00fe
:1068fc0020c0b300d8edb700d9cdbf00e34f500096
:10690c0002003a0030c0b300d8edb700d9cdbf00bb
:10691c00e44f500002003a0040c0b300d8edb7007d
:10692c00d9cdbf00e54f500002003a0050c0b30073
:10693c00d8edb700d9cdbf00e64f500002003a00a9
:10694c0060c0b300d8edb700d9cdbf00e74f500001
:10695c0002003a0070c0b300d8edb700d9cdbf002b
:10696c00e84f500002003a0080c0b300d8edb700e9
:10697c00d9cdbf00e94f500002003a0090c0b300df
:10698c00d8edb700d9cdbf00ea4f500002003a0055
:10699c00a0c0b300d8edb700d9cdbf00eb4f50006d
:1069ac0002003a00b0c0b300d8edb700d9cdbf009b
:1069bc00ec4f500002003a00c0c0b300d8edb70055
:1069cc00d9cdbf00ed4f500002003a00d0c0b3004b
:1069dc00d8edb700d9cdbf00ee4f500002003a0001
:1069ec00e0c0b300d8edb700d9cdbf00ef4f5000d9
:1069fc0002003a00f0c0b300d8edb700d9cdbf000b
:106a0c00f04f500002003a0000c1b300d8edb700bf
:106a1c00d9cdbf00f14f500002003a0010c1b300b5
:106a2c00d8edb700d9cdbf00f24f500002003a00ac
:106a3c0020c1b300d8edb700d9cdbf00f34f500043
:106a4c0002003a0030c1b300d8edb700d9cdbf0079
:106a5c00f44f500002003a0040c1b300d8edb7002b
:106a6c00d9cdbf00f54f500002003a0050c1b30021
:106a7c00d8edb700d9cdbf00f64f500002003a0058
:106a8c0060c1b300d8edb700d9cdbf00f74f5000af
:106a9c0002003a0070c1b300d8edb700d9cdbf00e9
:106aac00f84f500002003a0080c1b300d8edb70097
:106abc00d9cdbf00f94f500002003a0090c1b3008d
:106acc00d8edb700d9cdbf00fa4f500002003a0004
:106adc00a0c1b300d8edb700d9cdbf00fb4f50001b
:106aec0002003a00b0c1b300d8edb700d9cdbf0059
:106afc00fc4f500002003a00c0c1b300d8edb70003
:106b0c00d9cdbf00fd4f500002003a00d0c1b300f8
:106b1c00d8edb700d9cdbf00fe4f500002003a00af
:106b2c00e0c1b300d8edb700d9cdbf00ff4f500086
:106b3c0002003a00f0c1b300d8edb70091dd20009f
:106b4c009140780000c2b30080cf500002003a00a0
:106b5c0000c2b300d8edb70091dd20009140780061
:106b6c0010c2b30080cf500002003a0000c2b30044
:106b7c00d8edb70091dd20009140780020c2b30021
:106b8c0080cf500002003a00f0c1b300d8edb7003e
:106b9c0091dd20009140780030c2b30080cf5000ce
:106bac0002003a00e0c1b300d8edb70091dd20003f
:106bbc009140780040c2b30080cf500002003a00f0
:106bcc00d0c1b300d8edb70091dd20009140780022
:106bdc0050c2b30080cf500002003a00c0c1b300d5
:106bec00d8edb70091dd20009140780060c2b30071
:106bfc0080cf500002003a00b0c1b300d8edb7000e
:106c0c0091dd20009140780070c2b30080cf50001d
:106c1c0002003a00a0c1b300d8edb70091dd20000e
:106c2c009140780080c2b30080cf500002003a003f
:106c3c0090c1b300d8edb70091dd200091407800f1
:106c4c0090c2b30080cf500002003a0080c1b30064
:106c5c00d8edb70091dd200091407800a0c2b300c0
:106c6c0080cf500002003a0070c1b300d8edb700dd
:106c7c0091dd200091407800b0c2b30080cf50006d
:106c8c0002003a0060c1b300d8edb70091dd2000de
:106c9c0091407800c0c2b30080cf500002003a008f
:106cac0050c1b300d8edb70091dd200091407800c1
:106cbc00d0c2b30080cf500002003a0040c1b300f4
:106ccc00d8edb70091dd200091407800e0c2b30010
:106cdc0080cf500002003a0030c1b300d8edb700ad
:106cec0091dd200091407800f0c2b30080cf5000bd
:106cfc0002003a0020c1b300d8edb70091dd2000ae
:106d0c009140780000c3b30080cf500002003a00dd
:106d1c0010c1b300d8edb70091dd20009140780090
:106d2c0010c3b30080cf500002003a0000c1b30082
:106d3c00d8edb70091dd20009140780020c3b3005e
:106d4c0080cf500002003a00f0c0b300d8edb7007d
:106d5c0091dd20009140780030c3b30080cf50000b
:106d6c0002003a00e0c0b300d8edb70091dd20007e
:106d7c009140780040c3b30080cf500002003a002d
:106d8c00d0c0b300d8edb70091dd20009140780061
:106d9c0050c3b30080cf500002003a00c0c0b30013
:106dac00d8edb70091dd20009140780060c3b300ae
:106dbc0080cf500002003a00b0c0b300d8edb7004d
:106dcc0091dd20009140780070c3b30080cf50005b
:106ddc0002003a00a0c0b300d8edb70091dd20004e
:106dec009140780080c3b30080cf500002003a007d
:106dfc0090c0b300d8edb70091dd20009140780031
:106e0c0090c3b30080cf500002003a0080c0b300a2
:106e1c00d8edb70091dd200091407800a0c3b300fd
:106e2c0080cf500002003a0070c0b300d8edb7001c
:106e3c0091dd200091407800b0c3b30080cf5000aa
:106e4c0002003a0060c0b300d8edb70091dd20001d
:106e5c0091407800c0c3b30080cf500002003a00cc
:106e6c0050c0b300d8edb70091dd20009140780000
:106e7c00d0c3b30080cf500002003a0040c0b30032
:106e8c00d8edb70091dd200091407800e0c3b3004d
:106e9c0080cf500002003a0030c0b300d8edb700ec
:106eac0091dd200091407800f0c3b30080cf5000fa
:106ebc0002003a0020c0b300d8edb70091dd2000ed
:106ecc009140780000c4b30080cf500004003a0019
:106edc0010c0b300d8edb7000040eb00d9edb700ff
:106eec00d9cdbf000040e800d9edb7000040eb0061
:106efc0000e8b70011408000f00f2000808f500098
:106f0c000400360080c52000ccf9070010002000da
:106f1c001040880008ccbf000004e00002003a00da
:106f2c000000eb0086fc07000080fa004f03be0057
:106f3c004f02be004f01be004f00be003600f900ec
:106f4c00004006001e00fa000040eb0004e8b70009
:106f5c000000eb003060880010c0b30008ecb700f4
:106f6c0037fb0700e9fa070078fa07005001200008
:106f7c00403a880060022000303a880044c7bf00c5
:106f8c00f043b20044e7b700417420009140780010
:106f9c0000ceb30000c0600044e7b70000f6070065
:106fac0080c5200070f807008bfa0700b9fa0700bb
:106fbc00c0c120009efd0700170307002503070032
:106fcc0083c1200042c12000e1c02000a0c02000ed
:106fdc002f030700c962a900cd62a800000037008a
:106fec0030402000c5030700604798006e409000b9
:106ffc000080fb00600f98006e089000f80f5000a6
:10700c0090003200ee089000f88f500007003c0012
:10701c006e0890000000e00009003200ee089000bd
:10702c00f78f50001300320089003700ee089000f3
:10703c007a805000e30f500085003e00810037003d
:10704c0004c8bf000205200011c0b3009f00070058
:10705c000004e000e2ff320004c8bf00d0000700cb
:10706c000004e000deff3a0010002000d10307000e
:10707c00dbff3700b9010700200798002e009000b5
:10708c000000e0006c00320004c8bf002e0190002c
:10709c0051802000600107000000e000d0ff3200aa
:1070ac0050802000c5fc070050802000e11d2a0004
:1070bc00b70107001007980050802000411e2a00dd
:1070cc00b3010700000f78001e0090000000e000e4
:1070dc0002003d001e00e000540035001e00e000e0
:1070ec000e00350050802000b11e2a00a8010700b8
:1070fc000000e000020034000040eb0008ecb70098
:10710c0050802000311f2a00a10107000000e00080
:10711c000200340010c0b30008ecb700508020000f
:10712c0002062000b11f2a0001ec0700508020004d
:10713c0011252a000fec0700508020001cec0700e2
:10714c000001780004c8bf0051802000b700070080
:10715c000000e000a2ff320071fd070008ccbf0068
:10716c00a4fd070008ccbf00e14f500006003a0018
:10717c0071004700f12e2a000600090031587800f2
:10718c007000b1000500370067004700f12e2a009f
:10719c0006000900315878007000b10050802000c2
:1071ac0042032000712f2a00e1eb070050802000e1
:1071bc00e7004700efeb07005080200061322a0007
:1071cc00eceb07005080200021332a00e9eb07008c
:1071dc0050802000f1004700e6eb070050802000b3
:1071ec0021362a00e3eb07005080200011372a00db
:1071fc00e0eb07005080200001382a00ddeb07008f
:10720c005080200081392a00daeb070050802000e2
:10721c00e7eb07000001780004c8bf005180200094
:10722c00820007000000e0006dff320004c8bf00c0
:10723c00190007006aff3700100020005d030700eb
:10724c0067ff370004c8bf000600070064ff370063
:10725c00703b2a00801f7800e9eb07008f87e9005c
:10726c005fff37000200fa00004f78001e04e000b8
:10727c0007003a0001c1b30010402000f2020700e1
:10728c00104020001d0307000004e000fcff3a0042
:10729c000080fa00000006000200fa00004f78009f
:1072ac001e04e00007003a0081c0b300104020002b
:1072bc00e502070010402000100307000004e00066
:1072cc00fcff3a000080fa00000006000800fa00fb
:1072dc002047980031479800220798000040eb00a7
:1072ec00004f78002e4090000004e00003003200b4
:1072fc001e80fb003007980026003700304020002d
:10730c00fe0207000004e00002003a002e4090004c
:10731c00d4ff0700be40900000402000ca020700c6
:10732c00ae00900000f02f00008060004800de00ee
:10733c008040780040402000c30207002e009000df
:10734c008040780050402000bf02070011c0b300fd
:10735c0010402000bc02070010402000e70207008c
:10736c000004e000fcff3a0030402000e30207007c
:10737c00f34f500003003a0010c0b300004f7800e8
:10738c00020037002e409000b6ff07001e80fb0065
:10739c00300798003e0090000080fa0000000600c4
:1073ac000600fa00204798000040eb00004f7800e0
:1073bc002e4090000004e000030032001e80fb0011
:1073cc00200798001600370030402000cb02070041
:1073dc00f34f500010003a0021c0b30010402000c1
:1073ec009902070010402000c40207000004e000ce
:1073fc00fcff3a0030402000c0020700f44f500060
:10740c0003003a0010c0b300004f780002003700b0
:10741c002e40900093ff07001e80fb002007980071
:10742c002e0090000080fa00000006001400fa0004
:10743c00881f7800204f9800610798007207980009
:10744c007e0090000000e000030032002e48900007
:10745c000004e000030032000000eb00100f980065
:10746c006900370000422000a40207000080fb00e6
:10747c00100798009e009000f00f20000080600024
:10748c004804dd00104220009c0207000080fb0035
:10749c0000004400100798001f0037001000200067
:1074ac00c402070000422000940207000080fb0089
:1074bc00100798009e009000f00f200000806000e4
:1074cc004804dd00104220008c0207000080fb0005
:1074dc0000004400100798000040eb000057980093
:1074ec00803e20009e0f10000200360010c0b3003a
:1074fc00005798001e0fe8000e5090000004e000aa
:10750c00050032002e48900063ff07000000eb00de
:10751c00100f98003c0037009e0090007e009000f9
:10752c00808f5000ddff39004042200073020700bd
:10753c000080fb0040079800ce009000f00f200068
:10754c00008060004804dd00504220006b02070000
:10755c000080fb0000004400300798001300370047
:10756c007e0090000000e90070079800be009000bb
:10757c00f07f20008080600000002400008040002c
:10758c00200798006e009000904078002e0090002c
:10759c002d0207003e0090000000e8003007980024
:1075ac006e0090000000e800600798007e009000dc
:1075bc000000e000eaff3a00be00900000f02f004f
:1075cc00008060004800de008040780040422000cf
:1075dc001d0207003e0090008040780050422000c1
:1075ec001902070001c2b300104020001602070068
:1075fc0010402000410207000004e000fcff3a00ac
:10760c0010002000100f98001e0890004f04780006
:10761c000080fa00000006000e00fa00881f7800b7
